{
  "contractName": "MonereumInitializer",
  "abi": [
    {
      "constant": false,
      "inputs": [
        {
          "name": "h",
          "type": "uint256"
        },
        {
          "name": "p",
          "type": "uint256"
        }
      ],
      "name": "generateNextPoint",
      "outputs": [
        {
          "name": "ret",
          "type": "uint256[2]"
        }
      ],
      "payable": false,
      "stateMutability": "nonpayable",
      "type": "function"
    }
  ],
  "bytecode": "0x608060405234801561001057600080fd5b5061022c806100206000396000f300608060405260043610610041576000357c0100000000000000000000000000000000000000000000000000000000900463ffffffff16806338deb26914610046575b600080fd5b34801561005257600080fd5b5061007b60048036038101908080359060200190929190803590602001909291905050506100b9565b6040518082600260200280838360005b838110156100a657808201518184015260208101905061008b565b5050505090500191505060405180910390f35b6100c16101de565b600080600084868115156100d157fe5b0692505b60011561016e57848015156100e657fe5b83868015156100f157fe5b8586090991506003820191506101178260046001880181151561011057fe5b0487610177565b9050818580151561012457fe5b82830914151561013b5782806001019350506100d5565b8284600060028110151561014b57fe5b6020020181815250508084600160028110151561016457fe5b6020020181815250505b50505092915050565b60008060008060019250869150600090505b6101008110156101d15760018082889060020a90041614156101b557848015156101af57fe5b82840992505b848015156101bf57fe5b82830991508080600101915050610189565b8293505050509392505050565b60408051908101604052806002906020820280388339808201915050905050905600a165627a7a72305820499f7ac973e8be130e152741adc6af9f5443f95f929c3cc2dee43d476b6e5bb20029",
  "source": "pragma solidity 0.4.24;\r\n\r\ncontract MonereumInitializer {\r\n    // Generates a valid point from some hash `h`, where discrete log is not known w.r.t any other base\r\n    function generateNextPoint(uint256 h, uint256 p) public returns (uint256[2] ret) {\r\n        uint256 testX = h % p;\r\n        while (true) {\r\n            uint256 goal = mulmod(mulmod(testX, testX, p), testX, p);\r\n            goal += 3;\r\n            uint256 testY = expMod(goal, (p + 1) / 4, p);\r\n            if (mulmod(testY, testY, p) != goal) {\r\n                testX++;\r\n                continue;\r\n            } else {\r\n                ret[0] = testX;\r\n                ret[1] = testY;\r\n                break;\r\n            }\r\n        }\r\n    }\r\n\r\n    function expMod(uint256 b, uint256 e, uint256 m) internal pure returns (uint256 o) {\r\n        uint256 ans = 1;\r\n        uint256 n = b;\r\n        for (uint256 i = 0; i < 256; i++) {\r\n            if ((e >> i) & 1 == 1) {\r\n                ans = mulmod(ans, n, m);\r\n            }\r\n            n = mulmod(n, n, m);\r\n        }\r\n        return ans;\r\n    }\r\n\r\n}\r\n",
  "sourcePath": "/mnt/c/Users/Admin/Documents/programming/Monereum/contracts/contracts/MonereumInitializer.sol",
  "compiler": {
    "name": "solc",
    "version": "0.4.24+commit.e67f0147.Emscripten.clang"
  },
  "schemaVersion": "2.0.1",
  "updatedAt": "2018-11-20T17:03:30.137Z"
}