{
  "contractName": "MonereumMath",
  "abi": [
    {
      "constant": true,
      "inputs": [],
      "name": "p",
      "outputs": [
        {
          "name": "",
          "type": "uint256"
        }
      ],
      "payable": false,
      "stateMutability": "view",
      "type": "function"
    },
    {
      "constant": true,
      "inputs": [],
      "name": "q",
      "outputs": [
        {
          "name": "",
          "type": "uint256"
        }
      ],
      "payable": false,
      "stateMutability": "view",
      "type": "function"
    },
    {
      "inputs": [
        {
          "name": "MI",
          "type": "address"
        }
      ],
      "payable": false,
      "stateMutability": "nonpayable",
      "type": "constructor"
    },
    {
      "constant": false,
      "inputs": [],
      "name": "getMonereumInitializer",
      "outputs": [
        {
          "name": "",
          "type": "address"
        }
      ],
      "payable": false,
      "stateMutability": "nonpayable",
      "type": "function"
    },
    {
      "constant": false,
      "inputs": [],
      "name": "initializeH",
      "outputs": [],
      "payable": false,
      "stateMutability": "nonpayable",
      "type": "function"
    },
    {
      "constant": false,
      "inputs": [
        {
          "name": "a",
          "type": "uint256"
        },
        {
          "name": "b",
          "type": "uint256"
        }
      ],
      "name": "initializeHashVals",
      "outputs": [],
      "payable": false,
      "stateMutability": "nonpayable",
      "type": "function"
    },
    {
      "constant": false,
      "inputs": [
        {
          "name": "i",
          "type": "uint256"
        }
      ],
      "name": "initializeHashVal",
      "outputs": [],
      "payable": false,
      "stateMutability": "nonpayable",
      "type": "function"
    },
    {
      "constant": true,
      "inputs": [],
      "name": "G",
      "outputs": [
        {
          "name": "ret",
          "type": "uint256[2]"
        }
      ],
      "payable": false,
      "stateMutability": "view",
      "type": "function"
    },
    {
      "constant": true,
      "inputs": [],
      "name": "H",
      "outputs": [
        {
          "name": "ret",
          "type": "uint256[2]"
        }
      ],
      "payable": false,
      "stateMutability": "view",
      "type": "function"
    },
    {
      "constant": true,
      "inputs": [
        {
          "name": "i",
          "type": "uint256"
        }
      ],
      "name": "getHashval",
      "outputs": [
        {
          "name": "ret",
          "type": "uint256[2]"
        }
      ],
      "payable": false,
      "stateMutability": "view",
      "type": "function"
    },
    {
      "constant": true,
      "inputs": [
        {
          "name": "inp",
          "type": "uint256"
        }
      ],
      "name": "isInQ",
      "outputs": [
        {
          "name": "",
          "type": "bool"
        }
      ],
      "payable": false,
      "stateMutability": "pure",
      "type": "function"
    },
    {
      "constant": true,
      "inputs": [
        {
          "name": "p1",
          "type": "uint256[2]"
        }
      ],
      "name": "hashP",
      "outputs": [
        {
          "name": "",
          "type": "uint256"
        }
      ],
      "payable": false,
      "stateMutability": "pure",
      "type": "function"
    },
    {
      "constant": true,
      "inputs": [
        {
          "name": "p1",
          "type": "uint256[2]"
        }
      ],
      "name": "hashInP",
      "outputs": [
        {
          "name": "ret",
          "type": "uint256[2]"
        }
      ],
      "payable": false,
      "stateMutability": "view",
      "type": "function"
    },
    {
      "constant": true,
      "inputs": [
        {
          "name": "p1",
          "type": "uint256[2]"
        },
        {
          "name": "p2",
          "type": "uint256[2]"
        }
      ],
      "name": "ecadd",
      "outputs": [
        {
          "name": "ret",
          "type": "uint256[2]"
        }
      ],
      "payable": false,
      "stateMutability": "view",
      "type": "function"
    },
    {
      "constant": true,
      "inputs": [
        {
          "name": "p1",
          "type": "uint256[2]"
        },
        {
          "name": "scalar",
          "type": "uint256"
        }
      ],
      "name": "ecmul",
      "outputs": [
        {
          "name": "ret",
          "type": "uint256[2]"
        }
      ],
      "payable": false,
      "stateMutability": "view",
      "type": "function"
    }
  ],
  "bytecode": "0x60806040526040805190810160405280600181526020016002815250600090600261002b9291906100bd565b506000600560006101000a81548160ff02191690831515021790555034801561005357600080fd5b5060405160208061115f8339810180604052810190808051906020019092919050505080600560016101000a81548173ffffffffffffffffffffffffffffffffffffffff021916908373ffffffffffffffffffffffffffffffffffffffff16021790555050610122565b82600281019282156100ec579160200282015b828111156100eb5782518255916020019190600101906100d0565b5b5090506100f991906100fd565b5090565b61011f91905b8082111561011b576000816000905550600101610103565b5090565b90565b61102e806101316000396000f3006080604052600436106100d0576000357c0100000000000000000000000000000000000000000000000000000000900463ffffffff1680634169fbc4146100d55780635f0e925a1461010c57806362d46e7c146101725780636645fbb5146101c9578063698d9f41146101e05780636fecb6231461020d57806370a5d86114610260578063776710d7146102b35780639a4b6d8f1461034b5780639ae8886a146103d95780639ce3279014610404578063e9d1c41f14610449578063f0f425ea14610506578063fd3ab2821461056f575b600080fd5b3480156100e157600080fd5b5061010a600480360381019080803590602001909291908035906020019092919050505061059a565b005b34801561011857600080fd5b5061015c60048036038101908080604001906002806020026040519081016040528092919082600260200280828437820191505050505091929192905050506105c3565b6040518082815260200191505060405180910390f35b34801561017e57600080fd5b5061018761067a565b604051808273ffffffffffffffffffffffffffffffffffffffff1673ffffffffffffffffffffffffffffffffffffffff16815260200191505060405180910390f35b3480156101d557600080fd5b506101de6106a4565b005b3480156101ec57600080fd5b5061020b600480360381019080803590602001909291905050506107f5565b005b34801561021957600080fd5b50610222610a5b565b6040518082600260200280838360005b8381101561024d578082015181840152602081019050610232565b5050505090500191505060405180910390f35b34801561026c57600080fd5b50610275610aa6565b6040518082600260200280838360005b838110156102a0578082015181840152602081019050610285565b5050505090500191505060405180910390f35b3480156102bf57600080fd5b5061030d600480360381019080806040019060028060200260405190810160405280929190826002602002808284378201915050505050919291929080359060200190929190505050610af0565b6040518082600260200280838360005b8381101561033857808201518184015260208101905061031d565b5050505090500191505060405180910390f35b34801561035757600080fd5b5061039b6004803603810190808060400190600280602002604051908101604052809291908260026020028082843782019150505050509192919290505050610c11565b6040518082600260200280838360005b838110156103c65780820151818401526020810190506103ab565b5050505090500191505060405180910390f35b3480156103e557600080fd5b506103ee610cf7565b6040518082815260200191505060405180910390f35b34801561041057600080fd5b5061042f60048036038101908080359060200190929190505050610d1b565b604051808215151515815260200191505060405180910390f35b34801561045557600080fd5b506104c860048036038101908080604001906002806020026040519081016040528092919082600260200280828437820191505050505091929192908060400190600280602002604051908101604052809291908260026020028082843782019150505050509192919290505050610d53565b6040518082600260200280838360005b838110156104f35780820151818401526020810190506104d8565b5050505090500191505060405180910390f35b34801561051257600080fd5b5061053160048036038101908080359060200190929190505050610eb3565b6040518082600260200280838360005b8381101561055c578082015181840152602081019050610541565b5050505090500191505060405180910390f35b34801561057b57600080fd5b50610584610f11565b6040518082815260200191505060405180910390f35b60008290505b818110156105be576105b1816107f5565b80806001019150506105a0565b505050565b6000816040516020018082600260200280838360005b838110156105f45780820151818401526020810190506105d9565b505050509050019150506040516020818303038152906040526040518082805190602001908083835b602083101515610642578051825260208201915060208101905060208303925061061d565b6001836020036101000a0380198251168184511680821785525050505050509050019150506040518091039020600190049050919050565b6000600560019054906101000a900473ffffffffffffffffffffffffffffffffffffffff16905090565b600560019054906101000a900473ffffffffffffffffffffffffffffffffffffffff1673ffffffffffffffffffffffffffffffffffffffff166338deb269610728600060028060200260405190810160405280929190826002801561071e576020028201915b81548152602001906001019080831161070a575b50505050506105c3565b7f30644e72e131a029b85045b68181585d97816a916871ca8d3c208c16d87cfd476040518363ffffffff167c010000000000000000000000000000000000000000000000000000000002815260040180838152602001828152602001925050506040805180830381600087803b1580156107a157600080fd5b505af11580156107b5573d6000803e3d6000fd5b505050506040513d601f19601f8201168201806040525060408110156107da57600080fd5b810190809190505060029060026107f2929190610f35565b50565b6107fd610f75565b600060046000848152602001908152602001600020600060028110151561082057fe5b015414151561082e57600080fd5b8160001115801561083f5750608082105b151561084a57600080fd5b6000821415610897576002808060200260405190810160405280929190826002801561088b576020028201915b815481526020019060010190808311610877575b505050505090506108ec565b600460006001840381526020019081526020016000206002806020026040519081016040528092919082600280156108e4576020028201915b8154815260200190600101908083116108d0575b505050505090505b60008160006002811015156108fd57fe5b60200201511415151561090f57600080fd5b600560019054906101000a900473ffffffffffffffffffffffffffffffffffffffff1673ffffffffffffffffffffffffffffffffffffffff166338deb269610956836105c3565b7f30644e72e131a029b85045b68181585d97816a916871ca8d3c208c16d87cfd476040518363ffffffff167c010000000000000000000000000000000000000000000000000000000002815260040180838152602001828152602001925050506040805180830381600087803b1580156109cf57600080fd5b505af11580156109e3573d6000803e3d6000fd5b505050506040513d601f19601f820116820180604052506040811015610a0857600080fd5b810190809190505060046000848152602001908152602001600020906002610a31929190610f35565b506080821415610a57576001600560006101000a81548160ff0219169083151502179055505b5050565b610a63610f75565b6000600280602002604051908101604052809291908260028015610a9c576020028201915b815481526020019060010190808311610a88575b5050505050905090565b610aae610f75565b60028080602002604051908101604052809291908260028015610ae6576020028201915b815481526020019060010190808311610ad2575b5050505050905090565b610af8610f75565b610b00610f97565b6000846000600281101515610b1157fe5b6020020151826000600381101515610b2557fe5b602002018181525050846001600281101515610b3d57fe5b6020020151826001600381101515610b5157fe5b60200201818152505083826002600381101515610b6a57fe5b6020020181815250506000905060408360608460006007600019f11515610b9057600190505b8015610c09577f30644e72e131a029b85045b68181585d97816a916871ca8d3c208c16d87cfd47836000600281101515610bc657fe5b6020020181815250507f30644e72e131a029b85045b68181585d97816a916871ca8d3c208c16d87cfd47836001600281101515610bff57fe5b6020020181815250505b505092915050565b610c19610f75565b6000610c23610f75565b6000600560009054906101000a900460ff161515610c4057600080fd5b610c49856105c3565b925060408051908101604052806000815260200160008152509150600090505b6080811015610cec5760018082859060020a9004161415610cdf57610cdc8260046000848152602001908152602001600020600280602002604051908101604052809291908260028015610cd2576020028201915b815481526020019060010190808311610cbe575b5050505050610d53565b91505b8080600101915050610c69565b819350505050919050565b7f30644e72e131a029b85045b68181585d97816a916871ca8d3c208c16d87cfd4781565b6000808214158015610d4c57507f30644e72e131a029b85045b68181585d2833e84879b9709143e1f593f000000182105b9050919050565b610d5b610f75565b610d63610fba565b6000846000600281101515610d7457fe5b6020020151826000600481101515610d8857fe5b602002018181525050846001600281101515610da057fe5b6020020151826001600481101515610db457fe5b602002018181525050836000600281101515610dcc57fe5b6020020151826002600481101515610de057fe5b602002018181525050836001600281101515610df857fe5b6020020151826003600481101515610e0c57fe5b6020020181815250506000905060408360808460006006600019f11515610e3257600190505b8015610eab577f30644e72e131a029b85045b68181585d97816a916871ca8d3c208c16d87cfd47836000600281101515610e6857fe5b6020020181815250507f30644e72e131a029b85045b68181585d97816a916871ca8d3c208c16d87cfd47836001600281101515610ea157fe5b6020020181815250505b505092915050565b610ebb610f75565b60046000838152602001908152602001600020600280602002604051908101604052809291908260028015610f05576020028201915b815481526020019060010190808311610ef1575b50505050509050919050565b7f30644e72e131a029b85045b68181585d2833e84879b9709143e1f593f000000181565b8260028101928215610f64579160200282015b82811115610f63578251825591602001919060010190610f48565b5b509050610f719190610fdd565b5090565b6040805190810160405280600290602082028038833980820191505090505090565b606060405190810160405280600390602082028038833980820191505090505090565b608060405190810160405280600490602082028038833980820191505090505090565b610fff91905b80821115610ffb576000816000905550600101610fe3565b5090565b905600a165627a7a723058202f335b00a57467ad8f0bd9729bdc50728e4b4629aaf04c09706ac67b2746055d0029",
  "source": "pragma solidity 0.4.24;\r\n\r\nimport \"./MonereumInitializer.sol\";\r\n\r\ncontract MonereumMath {\r\n    // ECC Under y^2 = x^3 + 3 mod p\r\n    // It can be computed that the order of (1, 2) is q\r\n    // Note that both p and q are prime\r\n    uint256 public constant p = 21888242871839275222246405745257275088696311157297823662689037894645226208583;\r\n    uint256 public constant q = 21888242871839275222246405745257275088548364400416034343698204186575808495617;\r\n    uint256[2] g = [uint256(1), uint256(2)];\r\n    uint256[2] h;\r\n\r\n    mapping(uint256 => uint256[2]) hashSet;\r\n    bool hashSetInitialized = false;\r\n\r\n    MonereumInitializer mi;\r\n\r\n    function getMonereumInitializer() public returns (address) {\r\n        return mi;\r\n    }\r\n\r\n    constructor(address MI) public {\r\n        mi = MonereumInitializer(MI);\r\n    }\r\n\r\n    function initializeH() public {\r\n        h = mi.generateNextPoint(hashP(g), p);\r\n    }\r\n\r\n    function initializeHashVals(uint256 a, uint256 b) public {\r\n        for (uint256 i = a; i < b; i++) {\r\n            initializeHashVal(i);\r\n        }\r\n    }\r\n\r\n    function initializeHashVal(uint256 i) public {\r\n        require(hashSet[i][0] == 0);\r\n        require(0 <= i && i < 128);\r\n        uint256[2] memory prevVal;\r\n        if (i == 0) {\r\n            prevVal = h;\r\n        } else {\r\n            prevVal = hashSet[i - 1];\r\n        }\r\n        require(prevVal[0] != 0);\r\n        hashSet[i] = mi.generateNextPoint(hashP(prevVal), p);\r\n        if (i == 128) {\r\n            hashSetInitialized = true;\r\n        }\r\n    }\r\n\r\n    function G() public constant returns (uint256[2] ret) {\r\n        ret = g;\r\n    }\r\n\r\n    function H() public constant returns (uint256[2] ret) {\r\n        ret = h;\r\n    }\r\n\r\n    function getHashval(uint256 i) public constant returns (uint256[2] ret) {\r\n        ret = hashSet[i];\r\n    }\r\n\r\n    // All points other than the point at infinity will have order q\r\n    function isInf(uint256[2] p1) internal pure returns (bool) {\r\n        return p1[0] == 0 && p1[1] == 0;\r\n    }\r\n\r\n    function isInQ(uint256 inp) public pure returns (bool) {\r\n        return inp != 0 && inp < q;\r\n    }\r\n\r\n    function hashP(uint256[2] p1) public pure returns (uint256) {\r\n        return uint256(keccak256(abi.encode(p1)));\r\n    }\r\n\r\n    // If Alice sends two transactions to Bob with public keys P1 and P2, then Alice will know\r\n    // logG(P1 - P2) = s, since Alice generated P_i = x_iG + B to send to Bob over DH exchange.\r\n    // If Alice knows Bob's keyImages will use the same base H, Alice could then correlate\r\n    // Bob's public keyImages I1 and I2 by checking that I1 - I2 = sH, and know that both were from Bob.\r\n    // Here we make it incomputable for Alice to generate two public keys with the same base.\r\n    function hashInP(uint256[2] p1) public constant returns (uint256[2] ret) {\r\n        // 150k gas\r\n        require(hashSetInitialized);\r\n        uint256 pHash = hashP(p1);\r\n        uint256[2] memory hashGenerator = [uint256(0), uint256(0)];\r\n        for (uint256 i = 0; i < 128; i++) {\r\n            if (((pHash >> i) & 1) == 1) {\r\n                hashGenerator = ecadd(hashGenerator, hashSet[i]);\r\n            }\r\n        }\r\n        ret = hashGenerator;\r\n    }\r\n\r\n    function ecadd(uint256[2] p1, uint256[2] p2) public constant returns (uint256[2] ret) {\r\n        // With a public key (x, y), this computes p = scalar * (x, y).\r\n        uint256[4] memory input;\r\n        input[0] = p1[0];\r\n        input[1] = p1[1];\r\n        input[2] = p2[0];\r\n        input[3] = p2[1];\r\n        bool failed = false;\r\n        assembly {\r\n            // call ecmul precompile\r\n            if iszero(call(not(0), 0x06, 0, input, 0x80, ret, 0x40)) {\r\n                failed := 1\r\n            }\r\n        }\r\n        if (failed) {\r\n            // Failures propagate easily this way\r\n            ret[0] = p;\r\n            ret[1] = p;\r\n        }\r\n    }\r\n\r\n    function ecmul(uint256[2] p1, uint256 scalar) public constant returns (uint256[2] ret) {\r\n        // With a public key (x, y), this computes p = scalar * (x, y).\r\n        uint256[3] memory input;\r\n        input[0] = p1[0];\r\n        input[1] = p1[1];\r\n        input[2] = scalar;\r\n        bool failed = false;\r\n        assembly {\r\n            // call ecmul precompile\r\n            if iszero(call(not(0), 0x07, 0, input, 0x60, ret, 0x40)) {\r\n                failed := 1\r\n            }\r\n        }\r\n        if (failed) {\r\n            ret[0] = p;\r\n            ret[1] = p;\r\n        }\r\n    }\r\n}\r\n",
  "sourcePath": "/mnt/c/Users/Admin/Documents/programming/Monereum/contracts/contracts/MonereumMath.sol",
  "compiler": {
    "name": "solc",
    "version": "0.4.24+commit.e67f0147.Emscripten.clang"
  },
  "schemaVersion": "2.0.1",
  "updatedAt": "2018-11-20T17:03:30.225Z"
}