{
  "contractName": "MonereumBlockchain",
  "abi": [
    {
      "constant": false,
      "inputs": [
        {
          "name": "a",
          "type": "uint256"
        },
        {
          "name": "b",
          "type": "uint256"
        }
      ],
      "name": "initializeHashVals",
      "outputs": [],
      "payable": false,
      "stateMutability": "nonpayable",
      "type": "function"
    },
    {
      "constant": true,
      "inputs": [
        {
          "name": "p1",
          "type": "uint256[2]"
        }
      ],
      "name": "hashP",
      "outputs": [
        {
          "name": "",
          "type": "uint256"
        }
      ],
      "payable": false,
      "stateMutability": "pure",
      "type": "function"
    },
    {
      "constant": false,
      "inputs": [],
      "name": "getMonereumInitializer",
      "outputs": [
        {
          "name": "",
          "type": "address"
        }
      ],
      "payable": false,
      "stateMutability": "nonpayable",
      "type": "function"
    },
    {
      "constant": false,
      "inputs": [],
      "name": "initializeH",
      "outputs": [],
      "payable": false,
      "stateMutability": "nonpayable",
      "type": "function"
    },
    {
      "constant": false,
      "inputs": [
        {
          "name": "i",
          "type": "uint256"
        }
      ],
      "name": "initializeHashVal",
      "outputs": [],
      "payable": false,
      "stateMutability": "nonpayable",
      "type": "function"
    },
    {
      "constant": true,
      "inputs": [],
      "name": "G",
      "outputs": [
        {
          "name": "ret",
          "type": "uint256[2]"
        }
      ],
      "payable": false,
      "stateMutability": "view",
      "type": "function"
    },
    {
      "constant": true,
      "inputs": [],
      "name": "H",
      "outputs": [
        {
          "name": "ret",
          "type": "uint256[2]"
        }
      ],
      "payable": false,
      "stateMutability": "view",
      "type": "function"
    },
    {
      "constant": true,
      "inputs": [
        {
          "name": "p1",
          "type": "uint256[2]"
        },
        {
          "name": "scalar",
          "type": "uint256"
        }
      ],
      "name": "ecmul",
      "outputs": [
        {
          "name": "ret",
          "type": "uint256[2]"
        }
      ],
      "payable": false,
      "stateMutability": "view",
      "type": "function"
    },
    {
      "constant": true,
      "inputs": [
        {
          "name": "p1",
          "type": "uint256[2]"
        }
      ],
      "name": "hashInP",
      "outputs": [
        {
          "name": "ret",
          "type": "uint256[2]"
        }
      ],
      "payable": false,
      "stateMutability": "view",
      "type": "function"
    },
    {
      "constant": true,
      "inputs": [],
      "name": "p",
      "outputs": [
        {
          "name": "",
          "type": "uint256"
        }
      ],
      "payable": false,
      "stateMutability": "view",
      "type": "function"
    },
    {
      "constant": true,
      "inputs": [
        {
          "name": "inp",
          "type": "uint256"
        }
      ],
      "name": "isInQ",
      "outputs": [
        {
          "name": "",
          "type": "bool"
        }
      ],
      "payable": false,
      "stateMutability": "pure",
      "type": "function"
    },
    {
      "constant": true,
      "inputs": [
        {
          "name": "p1",
          "type": "uint256[2]"
        },
        {
          "name": "p2",
          "type": "uint256[2]"
        }
      ],
      "name": "ecadd",
      "outputs": [
        {
          "name": "ret",
          "type": "uint256[2]"
        }
      ],
      "payable": false,
      "stateMutability": "view",
      "type": "function"
    },
    {
      "constant": true,
      "inputs": [
        {
          "name": "i",
          "type": "uint256"
        }
      ],
      "name": "getHashval",
      "outputs": [
        {
          "name": "ret",
          "type": "uint256[2]"
        }
      ],
      "payable": false,
      "stateMutability": "view",
      "type": "function"
    },
    {
      "constant": true,
      "inputs": [],
      "name": "q",
      "outputs": [
        {
          "name": "",
          "type": "uint256"
        }
      ],
      "payable": false,
      "stateMutability": "view",
      "type": "function"
    },
    {
      "inputs": [
        {
          "name": "MI",
          "type": "address"
        },
        {
          "name": "MV",
          "type": "address"
        }
      ],
      "payable": false,
      "stateMutability": "nonpayable",
      "type": "constructor"
    },
    {
      "anonymous": false,
      "inputs": [
        {
          "indexed": false,
          "name": "ringGroupHash",
          "type": "uint256"
        },
        {
          "indexed": false,
          "name": "outputIDs",
          "type": "uint256[]"
        },
        {
          "indexed": false,
          "name": "commitment",
          "type": "uint256[2]"
        },
        {
          "indexed": false,
          "name": "rangeCommitments",
          "type": "uint256[2][]"
        },
        {
          "indexed": false,
          "name": "rangeBorromeans",
          "type": "uint256[]"
        },
        {
          "indexed": false,
          "name": "rangeProofs",
          "type": "uint256[2][]"
        },
        {
          "indexed": false,
          "name": "indices",
          "type": "uint256[]"
        }
      ],
      "name": "LogRangeProof",
      "type": "event"
    },
    {
      "anonymous": false,
      "inputs": [
        {
          "indexed": false,
          "name": "src",
          "type": "uint256[2]"
        },
        {
          "indexed": false,
          "name": "dest",
          "type": "uint256[2]"
        },
        {
          "indexed": false,
          "name": "commitment",
          "type": "uint256[2]"
        }
      ],
      "name": "LogTransaction",
      "type": "event"
    },
    {
      "anonymous": false,
      "inputs": [
        {
          "indexed": false,
          "name": "outputIDs",
          "type": "uint256[]"
        },
        {
          "indexed": false,
          "name": "ringHashes",
          "type": "uint256[]"
        }
      ],
      "name": "LogRingGroup",
      "type": "event"
    },
    {
      "anonymous": false,
      "inputs": [
        {
          "indexed": false,
          "name": "funds",
          "type": "uint256[2][3]"
        },
        {
          "indexed": false,
          "name": "keyImage",
          "type": "uint256[2]"
        },
        {
          "indexed": false,
          "name": "commitment",
          "type": "uint256[2]"
        },
        {
          "indexed": false,
          "name": "borromean",
          "type": "uint256"
        },
        {
          "indexed": false,
          "name": "imageFundProofs",
          "type": "uint256[3]"
        },
        {
          "indexed": false,
          "name": "commitmentProofs",
          "type": "uint256[3]"
        },
        {
          "indexed": false,
          "name": "outputHash",
          "type": "uint256"
        }
      ],
      "name": "LogRingProof",
      "type": "event"
    },
    {
      "constant": false,
      "inputs": [],
      "name": "getMonereumVerifier",
      "outputs": [
        {
          "name": "",
          "type": "address"
        }
      ],
      "payable": false,
      "stateMutability": "nonpayable",
      "type": "function"
    },
    {
      "constant": false,
      "inputs": [
        {
          "name": "dest",
          "type": "uint256[2]"
        },
        {
          "name": "amount",
          "type": "uint256"
        }
      ],
      "name": "mint",
      "outputs": [],
      "payable": false,
      "stateMutability": "nonpayable",
      "type": "function"
    },
    {
      "constant": true,
      "inputs": [
        {
          "name": "addr",
          "type": "address"
        }
      ],
      "name": "getBalance",
      "outputs": [
        {
          "name": "",
          "type": "uint256"
        }
      ],
      "payable": false,
      "stateMutability": "view",
      "type": "function"
    },
    {
      "constant": false,
      "inputs": [
        {
          "name": "amount",
          "type": "uint256"
        }
      ],
      "name": "withdrawEthereum",
      "outputs": [],
      "payable": false,
      "stateMutability": "nonpayable",
      "type": "function"
    },
    {
      "constant": false,
      "inputs": [
        {
          "name": "addr",
          "type": "address"
        },
        {
          "name": "amount",
          "type": "uint256"
        }
      ],
      "name": "depositEthereum",
      "outputs": [],
      "payable": true,
      "stateMutability": "payable",
      "type": "function"
    },
    {
      "constant": false,
      "inputs": [
        {
          "name": "outputIDs",
          "type": "uint256[]"
        },
        {
          "name": "commitment",
          "type": "uint256[2]"
        },
        {
          "name": "rangeCommitments",
          "type": "uint256[2][]"
        },
        {
          "name": "rangeBorromeans",
          "type": "uint256[]"
        },
        {
          "name": "rangeProofs",
          "type": "uint256[2][]"
        },
        {
          "name": "indices",
          "type": "uint256[]"
        }
      ],
      "name": "claimRangeProofBounty",
      "outputs": [],
      "payable": false,
      "stateMutability": "nonpayable",
      "type": "function"
    },
    {
      "constant": false,
      "inputs": [
        {
          "name": "outputIDs",
          "type": "uint256[]"
        },
        {
          "name": "commitment",
          "type": "uint256[2]"
        },
        {
          "name": "rangeCommitments",
          "type": "uint256[2][]"
        },
        {
          "name": "rangeBorromeans",
          "type": "uint256[]"
        },
        {
          "name": "rangeProofs",
          "type": "uint256[2][]"
        },
        {
          "name": "indices",
          "type": "uint256[]"
        }
      ],
      "name": "disputeRangeProof",
      "outputs": [],
      "payable": false,
      "stateMutability": "nonpayable",
      "type": "function"
    },
    {
      "constant": false,
      "inputs": [
        {
          "name": "outputIDs",
          "type": "uint256[]"
        },
        {
          "name": "commitment",
          "type": "uint256[2]"
        },
        {
          "name": "rangeCommitments",
          "type": "uint256[2][]"
        },
        {
          "name": "rangeBorromeans",
          "type": "uint256[]"
        },
        {
          "name": "rangeProofs",
          "type": "uint256[2][]"
        },
        {
          "name": "indices",
          "type": "uint256[]"
        }
      ],
      "name": "resolveRangeProof",
      "outputs": [],
      "payable": false,
      "stateMutability": "nonpayable",
      "type": "function"
    },
    {
      "constant": false,
      "inputs": [
        {
          "name": "outputIDs",
          "type": "uint256[]"
        },
        {
          "name": "ringHashes",
          "type": "uint256[]"
        }
      ],
      "name": "commitRingGroup",
      "outputs": [],
      "payable": false,
      "stateMutability": "nonpayable",
      "type": "function"
    },
    {
      "constant": false,
      "inputs": [
        {
          "name": "outputIDs",
          "type": "uint256[]"
        },
        {
          "name": "ringHashes",
          "type": "uint256[]"
        },
        {
          "name": "ringHash",
          "type": "uint256"
        }
      ],
      "name": "claimRingBounty",
      "outputs": [],
      "payable": false,
      "stateMutability": "nonpayable",
      "type": "function"
    },
    {
      "constant": false,
      "inputs": [
        {
          "name": "outputIDs",
          "type": "uint256[]"
        },
        {
          "name": "ringHashes",
          "type": "uint256[]"
        },
        {
          "name": "ringHash",
          "type": "uint256"
        }
      ],
      "name": "disputeRingProof",
      "outputs": [],
      "payable": false,
      "stateMutability": "nonpayable",
      "type": "function"
    },
    {
      "constant": false,
      "inputs": [
        {
          "name": "funds",
          "type": "uint256[2][3]"
        },
        {
          "name": "keyImage",
          "type": "uint256[2]"
        },
        {
          "name": "commitment",
          "type": "uint256[2]"
        },
        {
          "name": "borromean",
          "type": "uint256"
        },
        {
          "name": "imageFundProofs",
          "type": "uint256[3]"
        },
        {
          "name": "commitmentProofs",
          "type": "uint256[3]"
        },
        {
          "name": "outputHash",
          "type": "uint256"
        }
      ],
      "name": "resolveRingProof",
      "outputs": [],
      "payable": false,
      "stateMutability": "nonpayable",
      "type": "function"
    },
    {
      "constant": false,
      "inputs": [
        {
          "name": "ringHashes",
          "type": "uint256[]"
        },
        {
          "name": "outputIDs",
          "type": "uint256[]"
        },
        {
          "name": "commitment",
          "type": "uint256[2]"
        },
        {
          "name": "rangeCommitments",
          "type": "uint256[2][]"
        },
        {
          "name": "rangeBorromeans",
          "type": "uint256[]"
        },
        {
          "name": "rangeProofs",
          "type": "uint256[2][]"
        },
        {
          "name": "indices",
          "type": "uint256[]"
        }
      ],
      "name": "logRangeProof",
      "outputs": [],
      "payable": false,
      "stateMutability": "nonpayable",
      "type": "function"
    },
    {
      "constant": false,
      "inputs": [
        {
          "name": "fee",
          "type": "uint256"
        }
      ],
      "name": "saveMinerFee",
      "outputs": [],
      "payable": false,
      "stateMutability": "nonpayable",
      "type": "function"
    },
    {
      "constant": false,
      "inputs": [
        {
          "name": "funds",
          "type": "uint256[2][3][]"
        },
        {
          "name": "keyImages",
          "type": "uint256[2][]"
        },
        {
          "name": "commitment",
          "type": "uint256[2][]"
        },
        {
          "name": "borromean",
          "type": "uint256[]"
        },
        {
          "name": "imageFundProofs",
          "type": "uint256[3][]"
        },
        {
          "name": "commitmentProofs",
          "type": "uint256[3][]"
        },
        {
          "name": "rangeProofHashes",
          "type": "uint256[]"
        },
        {
          "name": "outputDests",
          "type": "uint256[2][]"
        },
        {
          "name": "outputSrcs",
          "type": "uint256[2][]"
        },
        {
          "name": "outputCommitments",
          "type": "uint256[2][]"
        },
        {
          "name": "minerFee",
          "type": "uint256"
        },
        {
          "name": "minerDest",
          "type": "uint256[2]"
        }
      ],
      "name": "send",
      "outputs": [],
      "payable": false,
      "stateMutability": "nonpayable",
      "type": "function"
    }
  ],
  "bytecode": "0x6080604052604080519081016040528060018152602001600281525060009060026200002d92919062000110565b506000600560006101000a81548160ff0219169083151502179055503480156200005657600080fd5b506040516040806200712f83398101806040528101908080519060200190929190805190602001909291905050508180600560016101000a81548173ffffffffffffffffffffffffffffffffffffffff021916908373ffffffffffffffffffffffffffffffffffffffff1602179055505080601260006101000a81548173ffffffffffffffffffffffffffffffffffffffff021916908373ffffffffffffffffffffffffffffffffffffffff16021790555050506200017d565b826002810192821562000142579160200282015b828111156200014157825182559160200191906001019062000124565b5b50905062000151919062000155565b5090565b6200017a91905b80821115620001765760008160009055506001016200015c565b5090565b90565b616fa2806200018d6000396000f300608060405260043610610174576000357c0100000000000000000000000000000000000000000000000000000000900463ffffffff16806299c4e21461017957806305717674146101d05780633440875f1461022c5780634169fbc41461025957806358e385ad146102905780635f0e925a146107a257806362d46e7c146108085780636645fbb51461085f578063698d9f41146108765780636fecb623146108a357806370a5d861146108f6578063776710d71461094957806389277543146109e15780639a4b6d8f14610bfa5780639ae8886a14610c885780639ce3279014610cb3578063ad395c7114610cf8578063b55424d214610e52578063c73af52114610e92578063c8327365146110ab578063d041c9bd1461115e578063d5bfebd6146113ba578063e9d1c41f146115d3578063efb533dd14611690578063f0f425ea14611743578063f41e06a1146117ac578063f8b2cb4f14611855578063fba4734f146118ac578063fd3ab282146118d9575b600080fd5b34801561018557600080fd5b5061018e611904565b604051808273ffffffffffffffffffffffffffffffffffffffff1673ffffffffffffffffffffffffffffffffffffffff16815260200191505060405180910390f35b3480156101dc57600080fd5b5061022a60048036038101908080604001906002806020026040519081016040528092919082600260200280828437820191505050505091929192908035906020019092919050505061192e565b005b34801561023857600080fd5b5061025760048036038101908080359060200190929190505050611b76565b005b34801561026557600080fd5b5061028e6004803603810190808035906020019092919080359060200190929190505050611c07565b005b34801561029c57600080fd5b506107a060048036038101908080359060200190820180359060200190808060200260200160405190810160405280939291908181526020016000905b8282101561035657848483905060c00201600380602002604051908101604052809291906000905b82821015610343578382604002016002806020026040519081016040528092919082600260200280828437820191505050505081526020019060010190610301565b50505050815260200190600101906102d9565b5050505050919291929080359060200190820180359060200190808060200260200160405190810160405280939291908181526020016000905b828210156103d5578484839050604002016002806020026040519081016040528092919082600260200280828437820191505050505081526020019060010190610390565b5050505050919291929080359060200190820180359060200190808060200260200160405190810160405280939291908181526020016000905b8282101561045457848483905060400201600280602002604051908101604052809291908260026020028082843782019150505050508152602001906001019061040f565b505050505091929192908035906020019082018035906020019080806020026020016040519081016040528093929190818152602001838360200280828437820191505050505050919291929080359060200190820180359060200190808060200260200160405190810160405280939291908181526020016000905b828210156105165784848390506060020160038060200260405190810160405280929190826003602002808284378201915050505050815260200190600101906104d1565b5050505050919291929080359060200190820180359060200190808060200260200160405190810160405280939291908181526020016000905b82821015610595578484839050606002016003806020026040519081016040528092919082600360200280828437820191505050505081526020019060010190610550565b505050505091929192908035906020019082018035906020019080806020026020016040519081016040528093929190818152602001838360200280828437820191505050505050919291929080359060200190820180359060200190808060200260200160405190810160405280939291908181526020016000905b82821015610657578484839050604002016002806020026040519081016040528092919082600260200280828437820191505050505081526020019060010190610612565b5050505050919291929080359060200190820180359060200190808060200260200160405190810160405280939291908181526020016000905b828210156106d6578484839050604002016002806020026040519081016040528092919082600260200280828437820191505050505081526020019060010190610691565b5050505050919291929080359060200190820180359060200190808060200260200160405190810160405280939291908181526020016000905b82821015610755578484839050604002016002806020026040519081016040528092919082600260200280828437820191505050505081526020019060010190610710565b50505050509192919290803590602001909291908060400190600280602002604051908101604052809291908260026020028082843782019150505050509192919290505050611c30565b005b3480156107ae57600080fd5b506107f2600480360381019080806040019060028060200260405190810160405280929190826002602002808284378201915050505050919291929050505061397f565b6040518082815260200191505060405180910390f35b34801561081457600080fd5b5061081d613a36565b604051808273ffffffffffffffffffffffffffffffffffffffff1673ffffffffffffffffffffffffffffffffffffffff16815260200191505060405180910390f35b34801561086b57600080fd5b50610874613a60565b005b34801561088257600080fd5b506108a160048036038101908080359060200190929190505050613bb1565b005b3480156108af57600080fd5b506108b8613e17565b6040518082600260200280838360005b838110156108e35780820151818401526020810190506108c8565b5050505090500191505060405180910390f35b34801561090257600080fd5b5061090b613e62565b6040518082600260200280838360005b8381101561093657808201518184015260208101905061091b565b5050505090500191505060405180910390f35b34801561095557600080fd5b506109a3600480360381019080806040019060028060200260405190810160405280929190826002602002808284378201915050505050919291929080359060200190929190505050613eac565b6040518082600260200280838360005b838110156109ce5780820151818401526020810190506109b3565b5050505090500191505060405180910390f35b3480156109ed57600080fd5b50610bf860048036038101908080359060200190820180359060200190808060200260200160405190810160405280939291908181526020018383602002808284378201915050505050509192919290806040019060028060200260405190810160405280929190826002602002808284378201915050505050919291929080359060200190820180359060200190808060200260200160405190810160405280939291908181526020016000905b82821015610ae1578484839050604002016002806020026040519081016040528092919082600260200280828437820191505050505081526020019060010190610a9c565b505050505091929192908035906020019082018035906020019080806020026020016040519081016040528093929190818152602001838360200280828437820191505050505050919291929080359060200190820180359060200190808060200260200160405190810160405280939291908181526020016000905b82821015610ba3578484839050604002016002806020026040519081016040528092919082600260200280828437820191505050505081526020019060010190610b5e565b5050505050919291929080359060200190820180359060200190808060200260200160405190810160405280939291908181526020018383602002808284378201915050505050509192919290505050613fcd565b005b348015610c0657600080fd5b50610c4a6004803603810190808060400190600280602002604051908101604052809291908260026020028082843782019150505050509192919290505050614513565b6040518082600260200280838360005b83811015610c75578082015181840152602081019050610c5a565b5050505090500191505060405180910390f35b348015610c9457600080fd5b50610c9d6145f9565b6040518082815260200191505060405180910390f35b348015610cbf57600080fd5b50610cde6004803603810190808035906020019092919050505061461d565b604051808215151515815260200191505060405180910390f35b348015610d0457600080fd5b50610e506004803603810190808060c00190600380602002604051908101604052809291906000905b82821015610d6f578382604002016002806020026040519081016040528092919082600260200280828437820191505050505081526020019060010190610d2d565b50505050919291929080604001906002806020026040519081016040528092919082600260200280828437820191505050505091929192908060400190600280602002604051908101604052809291908260026020028082843782019150505050509192919290803590602001909291908060600190600380602002604051908101604052809291908260036020028082843782019150505050509192919290806060019060038060200260405190810160405280929190826003602002808284378201915050505050919291929080359060200190929190505050614655565b005b610e90600480360381019080803573ffffffffffffffffffffffffffffffffffffffff16906020019092919080359060200190929190505050614b61565b005b348015610e9e57600080fd5b506110a960048036038101908080359060200190820180359060200190808060200260200160405190810160405280939291908181526020018383602002808284378201915050505050509192919290806040019060028060200260405190810160405280929190826002602002808284378201915050505050919291929080359060200190820180359060200190808060200260200160405190810160405280939291908181526020016000905b82821015610f92578484839050604002016002806020026040519081016040528092919082600260200280828437820191505050505081526020019060010190610f4d565b505050505091929192908035906020019082018035906020019080806020026020016040519081016040528093929190818152602001838360200280828437820191505050505050919291929080359060200190820180359060200190808060200260200160405190810160405280939291908181526020016000905b8282101561105457848483905060400201600280602002604051908101604052809291908260026020028082843782019150505050508152602001906001019061100f565b5050505050919291929080359060200190820180359060200190808060200260200160405190810160405280939291908181526020018383602002808284378201915050505050509192919290505050614bb2565b005b3480156110b757600080fd5b5061115c600480360381019080803590602001908201803590602001908080602002602001604051908101604052809392919081815260200183836020028082843782019150505050505091929192908035906020019082018035906020019080806020026020016040519081016040528093929190818152602001838360200280828437820191505050505050919291929080359060200190929190505050614f84565b005b34801561116a57600080fd5b506113b86004803603810190808035906020019082018035906020019080806020026020016040519081016040528093929190818152602001838360200280828437820191505050505050919291929080359060200190820180359060200190808060200260200160405190810160405280939291908181526020018383602002808284378201915050505050509192919290806040019060028060200260405190810160405280929190826002602002808284378201915050505050919291929080359060200190820180359060200190808060200260200160405190810160405280939291908181526020016000905b828210156112a157848483905060400201600280602002604051908101604052809291908260026020028082843782019150505050508152602001906001019061125c565b505050505091929192908035906020019082018035906020019080806020026020016040519081016040528093929190818152602001838360200280828437820191505050505050919291929080359060200190820180359060200190808060200260200160405190810160405280939291908181526020016000905b8282101561136357848483905060400201600280602002604051908101604052809291908260026020028082843782019150505050508152602001906001019061131e565b50505050509192919290803590602001908201803590602001908080602002602001604051908101604052809392919081815260200183836020028082843782019150505050505091929192905050506152f4565b005b3480156113c657600080fd5b506115d160048036038101908080359060200190820180359060200190808060200260200160405190810160405280939291908181526020018383602002808284378201915050505050509192919290806040019060028060200260405190810160405280929190826002602002808284378201915050505050919291929080359060200190820180359060200190808060200260200160405190810160405280939291908181526020016000905b828210156114ba578484839050604002016002806020026040519081016040528092919082600260200280828437820191505050505081526020019060010190611475565b505050505091929192908035906020019082018035906020019080806020026020016040519081016040528093929190818152602001838360200280828437820191505050505050919291929080359060200190820180359060200190808060200260200160405190810160405280939291908181526020016000905b8282101561157c578484839050604002016002806020026040519081016040528092919082600260200280828437820191505050505081526020019060010190611537565b50505050509192919290803590602001908201803590602001908080602002602001604051908101604052809392919081815260200183836020028082843782019150505050505091929192905050506159a0565b005b3480156115df57600080fd5b5061165260048036038101908080604001906002806020026040519081016040528092919082600260200280828437820191505050505091929192908060400190600280602002604051908101604052809291908260026020028082843782019150505050509192919290505050615c77565b6040518082600260200280838360005b8381101561167d578082015181840152602081019050611662565b5050505090500191505060405180910390f35b34801561169c57600080fd5b50611741600480360381019080803590602001908201803590602001908080602002602001604051908101604052809392919081815260200183836020028082843782019150505050505091929192908035906020019082018035906020019080806020026020016040519081016040528093929190818152602001838360200280828437820191505050505050919291929080359060200190929190505050615dd7565b005b34801561174f57600080fd5b5061176e60048036038101908080359060200190929190505050616028565b6040518082600260200280838360005b8381101561179957808201518184015260208101905061177e565b5050505090500191505060405180910390f35b3480156117b857600080fd5b506118536004803603810190808035906020019082018035906020019080806020026020016040519081016040528093929190818152602001838360200280828437820191505050505050919291929080359060200190820180359060200190808060200260200160405190810160405280939291908181526020018383602002808284378201915050505050509192919290505050616086565b005b34801561186157600080fd5b50611896600480360381019080803573ffffffffffffffffffffffffffffffffffffffff1690602001909291905050506164df565b6040518082815260200191505060405180910390f35b3480156118b857600080fd5b506118d760048036038101908080359060200190929190505050616528565b005b3480156118e557600080fd5b506118ee61667c565b6040518082815260200191505060405180910390f35b6000601260009054906101000a900473ffffffffffffffffffffffffffffffffffffffff16905090565b60006119398361397f565b90506000600481111561194857fe5b6006600083815260200190815260200160002060020160009054906101000a900460ff16600481111561197757fe5b1415156119ec576040517f08c379a000000000000000000000000000000000000000000000000000000000815260040180806020018281038252601a8152602001807f5472616e73616374696f6e20616c72656164792065786973747300000000000081525060200191505060405180910390fd5b611a3260028080602002604051908101604052809291908260028015611a27576020028201915b815481526020019060010190808311611a13575b505050505083613eac565b60066000838152602001908152602001600020600001906002611a56929190616dac565b5060026006600083815260200190815260200160002060020160006101000a81548160ff02191690836004811115611a8a57fe5b02179055507f4f9a4e6e916c157b631e402d9343ac7e4716b271f2a3a1174a8be78914fe866d604080519081016040528060008152602001600081525084600660008581526020019081526020016000206000016040518084600260200280838360005b83811015611b09578082015181840152602081019050611aee565b5050505090500183600260200280838360005b83811015611b37578082015181840152602081019050611b1c565b505050509050018260028015611b62576020028201915b815481526020019060010190808311611b4e575b5050935050505060405180910390a1505050565b604060019060020a0281101515611b8c57600080fd5b60008114151515611b9c57600080fd5b611be260028080602002604051908101604052809291908260028015611bd7576020028201915b815481526020019060010190808311611bc3575b505050505082613eac565b60096000838152602001908152602001600020906002611c03929190616dac565b5050565b60008290505b81811015611c2b57611c1e81613bb1565b8080600101915050611c0d565b505050565b611c38616dec565b8c51816101000181815250508061010001518c51141515611c5857600080fd5b8061010001518b51141515611c6c57600080fd5b8061010001518a51141515611c8057600080fd5b8061010001518951141515611c9457600080fd5b8061010001518851141515611ca857600080fd5b6000816101000151118015611cc257506005816101000151105b1515611d36576040517f08c379a000000000000000000000000000000000000000000000000000000000815260040180806020018281038252601c8152602001807f4f6e6c7920312e2e2e342072696e67732061726520616c6c6f7765640000000081525060200191505060405180910390fd5b855181606001818152505080606001518551141515611d5457600080fd5b80606001518451141515611d6757600080fd5b60008160600151118015611d7f575060058160600151105b1515611df3576040517f08c379a000000000000000000000000000000000000000000000000000000000815260040180806020018281038252601e8152602001807f4f6e6c7920312e2e2e34206f7574707574732061726520616c6c6f776564000081525060200191505060405180910390fd5b85858585604051602001808060200180602001806020018581526020018481038452888181518152602001915080516000925b81841015611e7157828490602001906020020151600260200280838360005b83811015611e60578082015181840152602081019050611e45565b505050509050019260010192611e26565b925050508481038352878181518152602001915080516000925b81841015611ed657828490602001906020020151600260200280838360005b83811015611ec5578082015181840152602081019050611eaa565b505050509050019260010192611e8b565b925050508481038252868181518152602001915080516000925b81841015611f3b57828490602001906020020151600260200280838360005b83811015611f2a578082015181840152602081019050611f0f565b505050509050019260010192611ef0565b925050509750505050505050506040516020818303038152906040526040518082805190602001908083835b602083101515611f8c5780518252602082019150602081019050602083039250611f67565b6001836020036101000a0380198251168184511680821785525050505050509050019150506040518091039020600190048160a0018181525050806101000151604051908082528060200260200182016040528015611ffa5781602001602082028038833980820191505090505b50816101e00181905250604080519081016040528060008152602001600081525081602001819052506000816101400181815250505b80610100015181610140015110156128e3578b81610140015181518110151561205557fe5b90602001906020020151816000018190525060076000612078836000015161397f565b815260200190815260200160002060009054906101000a900460ff16151515612109576040517f08c379a00000000000000000000000000000000000000000000000000000000081526004018080602001828103825260188152602001807f6b6579496d61676520697320616c72656164792075736564000000000000000081525060200191505060405180910390fd5b6000816101200181815250505b6003816101200151101561225a576121608d82610140015181518110151561213a57fe5b9060200190602002015182610120015160038110151561215657fe5b602002015161397f565b8160e00181815250506002600481111561217657fe5b600660008360e00151815260200190815260200160002060020160009054906101000a900460ff1660048111156121a957fe5b141515612244576040517f08c379a00000000000000000000000000000000000000000000000000000000081526004018080602001828103825260258152602001807f5472616e73616374696f6e20686173206e6f74206265656e206163636570746581526020017f642079657400000000000000000000000000000000000000000000000000000081525060400191505060405180910390fd5b8061012001805180919060010181525050612116565b8c81610140015181518110151561226d57fe5b9060200190602002015181600001518c83610140015181518110151561228f57fe5b906020019060200201518c8461014001518151811015156122ac57fe5b906020019060200201518c8561014001518151811015156122c957fe5b906020019060200201518c8661014001518151811015156122e657fe5b906020019060200201518660a00151604051602001808860036000925b818410156123495782846020020151600260200280838360005b8381101561233857808201518184015260208101905061231d565b505050509050019260010192612303565b9250505087600260200280838360005b83811015612374578082015181840152602081019050612359565b5050505090500186600260200280838360005b838110156123a2578082015181840152602081019050612387565b5050505090500185815260200184600360200280838360005b838110156123d65780820151818401526020810190506123bb565b5050505090500183600360200280838360005b838110156124045780820151818401526020810190506123e9565b505050509050018281526020019750505050505050506040516020818303038152906040526040518082805190602001908083835b60208310151561245e5780518252602082019150602081019050602083039250612439565b6001836020036101000a0380198251168184511680821785525050505050509050019150506040518091039020600190048160c00181815250507f4bd0cbbabdffc7cc8fdbf90d031deb0a1a65ace5121e5ba29c22d97ea4d17d5c8d8261014001518151811015156124cc57fe5b9060200190602002015182600001518d8461014001518151811015156124ee57fe5b906020019060200201518d85610140015181518110151561250b57fe5b906020019060200201518d86610140015181518110151561252857fe5b906020019060200201518d87610140015181518110151561254557fe5b906020019060200201518760a00151604051808860036000925b818410156125a55782846020020151600260200280838360005b83811015612594578082015181840152602081019050612579565b50505050905001926001019261255f565b9250505087600260200280838360005b838110156125d05780820151818401526020810190506125b5565b5050505090500186600260200280838360005b838110156125fe5780820151818401526020810190506125e3565b5050505090500185815260200184600360200280838360005b83811015612632578082015181840152602081019050612617565b5050505090500183600360200280838360005b83811015612660578082015181840152602081019050612645565b5050505090500182815260200197505050505050505060405180910390a16126a38b82610140015181518110151561269457fe5b906020019060200201516166a0565b15151561273e576040517f08c379a000000000000000000000000000000000000000000000000000000000815260040180806020018281038252602c8152602001807f496e70757420636f6d6d69746d656e742063616e6e6f7420626520706f696e7481526020017f20617420696e66696e697479000000000000000000000000000000000000000081525060400191505060405180910390fd5b61276881602001518c83610140015181518110151561275957fe5b90602001906020020151615c77565b81602001819052507f30644e72e131a029b85045b68181585d97816a916871ca8d3c208c16d87cfd47816020015160006002811015156127a457fe5b602002015110151561286a576040517f08c379a00000000000000000000000000000000000000000000000000000000081526004018080602001828103825260418152602001807f436f6d6d69746d656e742073756d206661696c65643b204e6f7420616c6c206981526020017f6e70757420636f6d6d69746d656e747320617265206f6e20746865206375727681526020017f650000000000000000000000000000000000000000000000000000000000000081525060600191505060405180910390fd5b8060c00151816101e0015182610140015181518110151561288757fe5b90602001906020020181815250506001600760006128a8846000015161397f565b815260200190815260200160002060006101000a81548160ff0219169083151502179055508061014001805180919060010181525050612030565b60018160600151016040519080825280602002602001820160405280156129195781602001602082028038833980820191505090505b508161020001819052506000816101200181815250505b806060015181610120015110156129a2576129668682610120015181518110151561295757fe5b9060200190602002015161397f565b81610200015182610120015181518110151561297e57fe5b90602001906020020181815250508061012001805180919060010181525050612930565b6129ab8261397f565b81610200015182606001518151811015156129c257fe5b9060200190602002018181525050806102000151816101e00151604051602001808060200180602001838103835285818151815260200191508051906020019060200280838360005b83811015612a26578082015181840152602081019050612a0b565b50505050905001838103825284818151815260200191508051906020019060200280838360005b83811015612a68578082015181840152602081019050612a4d565b505050509050019450505050506040516020818303038152906040526040518082805190602001908083835b602083101515612ab95780518252602082019150602081019050602083039250612a94565b6001836020036101000a038019825116818451168082178552505050505050905001915050604051809103902060019004816101800181815250506000600a6000836101800151815260200190815260200160002054141515612baa576040517f08c379a00000000000000000000000000000000000000000000000000000000081526004018080602001828103825260258152602001807f52696e672047726f75702068617320616c7265616479206265656e207375626d81526020017f697474656400000000000000000000000000000000000000000000000000000081525060400191505060405180910390fd5b60fa60019060020a02600a60008361018001518152602001908152602001600020819055507f91136c7baf6562bc455d974f4a709b9c05d424e1ac4a85cc69ffd872d1b08f50816102000151826101e00151604051808060200180602001838103835285818151815260200191508051906020019060200280838360005b83811015612c43578082015181840152602081019050612c28565b50505050905001838103825284818151815260200191508051906020019060200280838360005b83811015612c85578082015181840152602081019050612c6a565b5050505090500194505050505060405180910390a180606001518751141515612cad57600080fd5b6000816101200181815250505b806060015181610120015110156133da57806102000151816101200151815181101515612ce357fe5b90602001906020020151816101a001818152505060006004811115612d0457fe5b60066000836101a00151815260200190815260200160002060020160009054906101000a900460ff166004811115612d3857fe5b141515612dd3576040517f08c379a00000000000000000000000000000000000000000000000000000000081526004018080602001828103825260218152602001807f4f7574707574207472616e73616374696f6e20616c726561647920657869737481526020017f730000000000000000000000000000000000000000000000000000000000000081525060400191505060405180910390fd5b83816101200151815181101515612de657fe5b9060200190602002015160066000836101a001518152602001908152602001600020600001906002612e19929190616dac565b50600160066000836101a00151815260200190815260200160002060020160006101000a81548160ff02191690836004811115612e5257fe5b02179055507f4f9a4e6e916c157b631e402d9343ac7e4716b271f2a3a1174a8be78914fe866d85826101200151815181101515612e8b57fe5b9060200190602002015187836101200151815181101515612ea857fe5b9060200190602002015186846101200151815181101515612ec557fe5b906020019060200201516040518084600260200280838360005b83811015612efa578082015181840152602081019050612edf565b5050505090500183600260200280838360005b83811015612f28578082015181840152602081019050612f0d565b5050505090500182600260200280838360005b83811015612f56578082015181840152602081019050612f3b565b50505050905001935050505060405180910390a160008161012001511480612fb8575086816101200151815181101515612f8c57fe5b9060200190602002015187600183610120015103815181101515612fac57fe5b90602001906020020151105b151561302c576040517f08c379a000000000000000000000000000000000000000000000000000000000815260040180806020018281038252601d8152602001807f52616e676520686173686573206d75737420626520696e206f7264657200000081525060200191505060405180910390fd5b6130518482610120015181518110151561304257fe5b9060200190602002015161397f565b600c6000836101800151815260200190815260200160002060008984610120015181518110151561307e57fe5b906020019060200201518152602001908152602001600020819055506130bf848261012001518151811015156130b057fe5b906020019060200201516166a0565b15151561315a576040517f08c379a000000000000000000000000000000000000000000000000000000000815260040180806020018281038252602d8152602001807f4f757470757420436f6d6d69746d656e742063616e6e6f7420626520706f696e81526020017f7420617420696e66696e6974790000000000000000000000000000000000000081525060400191505060405180910390fd5b7f30644e72e131a029b85045b68181585d97816a916871ca8d3c208c16d87cfd478482610120015181518110151561318e57fe5b9060200190602002015160016002811015156131a657fe5b6020020151101515613246576040517f08c379a000000000000000000000000000000000000000000000000000000000815260040180806020018281038252603e8152602001807f436f6d6d69746d656e742073756d206661696c65643b206e6f7420616c6c206f81526020017f757470757420636f6d6d69746d656e747320617265206f6e206375727665000081525060400191505060405180910390fd5b6132e8816020015160408051908101604052808785610120015181518110151561326c57fe5b90602001906020020151600060028110151561328457fe5b60200201518152602001878561012001518151811015156132a157fe5b9060200190602002015160016002811015156132b957fe5b60200201517f30644e72e131a029b85045b68181585d97816a916871ca8d3c208c16d87cfd4703815250615c77565b81602001819052507f30644e72e131a029b85045b68181585d97816a916871ca8d3c208c16d87cfd478160200151600060028110151561332457fe5b60200201511015156133c4576040517f08c379a000000000000000000000000000000000000000000000000000000000815260040180806020018281038252603e8152602001807f436f6d6d69746d656e742073756d206661696c65643b206e6f7420616c6c206f81526020017f757470757420636f6d6d69746d656e747320617265206f6e206375727665000081525060400191505060405180910390fd5b8061012001805180919060010181525050612cba565b60008314156134075760408051908101604052806000815260200160008152508160400181905250613515565b60096000848152602001908152602001600020600280602002604051908101604052809291908260028015613451576020028201915b81548152602001906001019080831161343d575b5050505050816040018190525060008160400151600060028110151561347357fe5b602002015114151515613514576040517f08c379a00000000000000000000000000000000000000000000000000000000081526004018080602001828103825260258152602001807f4d696e65722046656520686173206e6f74206265656e2063616c63756c61746581526020017f642079657400000000000000000000000000000000000000000000000000000081525060400191505060405180910390fd5b5b8060400151600060028110151561352857fe5b60200201518160200151600060028110151561354057fe5b60200201511415156135e0576040517f08c379a000000000000000000000000000000000000000000000000000000000815260040180806020018281038252602b8152602001807f436f6d6d69746d656e742073756d206661696c65643b20446f6573206e6f742081526020017f73756d20746f207a65726f00000000000000000000000000000000000000000081525060400191505060405180910390fd5b806040015160016002811015156135f357fe5b60200201518160200151600160028110151561360b57fe5b60200201511415156136ab576040517f08c379a000000000000000000000000000000000000000000000000000000000815260040180806020018281038252602b8152602001807f436f6d6d69746d656e742073756d206661696c65643b20446f6573206e6f742081526020017f73756d20746f207a65726f00000000000000000000000000000000000000000081525060400191505060405180910390fd5b80610200015181606001518151811015156136c257fe5b90602001906020020151816101a0018181525050600060048111156136e357fe5b60066000836101a00151815260200190815260200160002060020160009054906101000a900460ff16600481111561371757fe5b14151561378c576040517f08c379a00000000000000000000000000000000000000000000000000000000081526004018080602001828103825260208152602001807f4d696e6572207472616e73616374696f6e20616c72656164792065786973747381525060200191505060405180910390fd5b806040015160066000836101a0015181526020019081526020016000206000019060026137ba929190616dac565b50600160066000836101a00151815260200190815260200160002060020160006101000a81548160ff021916908360048111156137f357fe5b02179055508060600151600b600083610180015181526020019081526020016000208190555033816101c0019073ffffffffffffffffffffffffffffffffffffffff16908173ffffffffffffffffffffffffffffffffffffffff168152505067016345785d8a000060086000836101c0015173ffffffffffffffffffffffffffffffffffffffff1673ffffffffffffffffffffffffffffffffffffffff1681526020019081526020016000205410151515613916576040517f08c379a000000000000000000000000000000000000000000000000000000000815260040180806020018281038252601b8152602001807f4e6f7420656e6f7567682066756e647320666f7220626f756e7479000000000081525060200191505060405180910390fd5b67016345785d8a000060086000836101c0015173ffffffffffffffffffffffffffffffffffffffff1673ffffffffffffffffffffffffffffffffffffffff1681526020019081526020016000206000828254039250508190555050505050505050505050505050565b6000816040516020018082600260200280838360005b838110156139b0578082015181840152602081019050613995565b505050509050019150506040516020818303038152906040526040518082805190602001908083835b6020831015156139fe57805182526020820191506020810190506020830392506139d9565b6001836020036101000a0380198251168184511680821785525050505050509050019150506040518091039020600190049050919050565b6000600560019054906101000a900473ffffffffffffffffffffffffffffffffffffffff16905090565b600560019054906101000a900473ffffffffffffffffffffffffffffffffffffffff1673ffffffffffffffffffffffffffffffffffffffff166338deb269613ae46000600280602002604051908101604052809291908260028015613ada576020028201915b815481526020019060010190808311613ac6575b505050505061397f565b7f30644e72e131a029b85045b68181585d97816a916871ca8d3c208c16d87cfd476040518363ffffffff167c010000000000000000000000000000000000000000000000000000000002815260040180838152602001828152602001925050506040805180830381600087803b158015613b5d57600080fd5b505af1158015613b71573d6000803e3d6000fd5b505050506040513d601f19601f820116820180604052506040811015613b9657600080fd5b81019080919050506002906002613bae929190616dac565b50565b613bb9616e99565b6000600460008481526020019081526020016000206000600281101515613bdc57fe5b0154141515613bea57600080fd5b81600011158015613bfb5750608082105b1515613c0657600080fd5b6000821415613c535760028080602002604051908101604052809291908260028015613c47576020028201915b815481526020019060010190808311613c33575b50505050509050613ca8565b60046000600184038152602001908152602001600020600280602002604051908101604052809291908260028015613ca0576020028201915b815481526020019060010190808311613c8c575b505050505090505b6000816000600281101515613cb957fe5b602002015114151515613ccb57600080fd5b600560019054906101000a900473ffffffffffffffffffffffffffffffffffffffff1673ffffffffffffffffffffffffffffffffffffffff166338deb269613d128361397f565b7f30644e72e131a029b85045b68181585d97816a916871ca8d3c208c16d87cfd476040518363ffffffff167c010000000000000000000000000000000000000000000000000000000002815260040180838152602001828152602001925050506040805180830381600087803b158015613d8b57600080fd5b505af1158015613d9f573d6000803e3d6000fd5b505050506040513d601f19601f820116820180604052506040811015613dc457600080fd5b810190809190505060046000848152602001908152602001600020906002613ded929190616dac565b506080821415613e13576001600560006101000a81548160ff0219169083151502179055505b5050565b613e1f616e99565b6000600280602002604051908101604052809291908260028015613e58576020028201915b815481526020019060010190808311613e44575b5050505050905090565b613e6a616e99565b60028080602002604051908101604052809291908260028015613ea2576020028201915b815481526020019060010190808311613e8e575b5050505050905090565b613eb4616e99565b613ebc616ebb565b6000846000600281101515613ecd57fe5b6020020151826000600381101515613ee157fe5b602002018181525050846001600281101515613ef957fe5b6020020151826001600381101515613f0d57fe5b60200201818152505083826002600381101515613f2657fe5b6020020181815250506000905060408360608460006007600019f11515613f4c57600190505b8015613fc5577f30644e72e131a029b85045b68181585d97816a916871ca8d3c208c16d87cfd47836000600281101515613f8257fe5b6020020181815250507f30644e72e131a029b85045b68181585d97816a916871ca8d3c208c16d87cfd47836001600281101515613fbb57fe5b6020020181815250505b505092915050565b600080878787878787604051602001808060200187600260200280838360005b83811015614008578082015181840152602081019050613fed565b505050509050018060200180602001806020018060200186810386528c818151815260200191508051906020019060200280838360005b8381101561405a57808201518184015260208101905061403f565b5050505090500186810385528a8181518152602001915080516000925b818410156140c257828490602001906020020151600260200280838360005b838110156140b1578082015181840152602081019050614096565b505050509050019260010192614077565b92505050868103845289818151815260200191508051906020019060200280838360005b838110156141015780820151818401526020810190506140e6565b505050509050018681038352888181518152602001915080516000925b8184101561416957828490602001906020020151600260200280838360005b8381101561415857808201518184015260208101905061413d565b50505050905001926001019261411e565b92505050868103825287818151815260200191508051906020019060200280838360005b838110156141a857808201518184015260208101905061418d565b505050509050019b5050505050505050505050506040516020818303038152906040526040518082805190602001908083835b60208310151561420057805182526020820191506020810190506020830392506141db565b6001836020036101000a0380198251168184511680821785525050505050509050019150506040518091039020600190049150601260009054906101000a900473ffffffffffffffffffffffffffffffffffffffff1673ffffffffffffffffffffffffffffffffffffffff16635839d66488888888886040518663ffffffff167c01000000000000000000000000000000000000000000000000000000000281526004018086600260200280838360005b838110156142cc5780820151818401526020810190506142b1565b50505050905001806020018060200180602001806020018581038552898181518152602001915080516000925b8184101561434457828490602001906020020151600260200280838360005b83811015614333578082015181840152602081019050614318565b5050505090500192600101926142f9565b92505050858103845288818151815260200191508051906020019060200280838360005b83811015614383578082015181840152602081019050614368565b505050509050018581038352878181518152602001915080516000925b818410156143eb57828490602001906020020151600260200280838360005b838110156143da5780820151818401526020810190506143bf565b5050505090500192600101926143a0565b92505050858103825286818151815260200191508051906020019060200280838360005b8381101561442a57808201518184015260208101905061440f565b505050509050019950505050505050505050602060405180830381600087803b15801561445657600080fd5b505af115801561446a573d6000803e3d6000fd5b505050506040513d602081101561448057600080fd5b8101908080519060200190929190505050905080156144d35760026010600084815260200190815260200160002060006101000a81548160ff021916908360028111156144c957fe5b0217905550614509565b60016010600084815260200190815260200160002060006101000a81548160ff0219169083600281111561450357fe5b02179055505b5050505050505050565b61451b616e99565b6000614525616e99565b6000600560009054906101000a900460ff16151561454257600080fd5b61454b8561397f565b925060408051908101604052806000815260200160008152509150600090505b60808110156145ee5760018082859060020a90041614156145e1576145de82600460008481526020019081526020016000206002806020026040519081016040528092919082600280156145d4576020028201915b8154815260200190600101908083116145c0575b5050505050615c77565b91505b808060010191505061456b565b819350505050919050565b7f30644e72e131a029b85045b68181585d97816a916871ca8d3c208c16d87cfd4781565b600080821415801561464e57507f30644e72e131a029b85045b68181585d2833e84879b9709143e1f593f000000182105b9050919050565b600061465f616ede565b6000808a8a8a8a8a8a8a604051602001808860036000925b818410156146bd5782846020020151600260200280838360005b838110156146ac578082015181840152602081019050614691565b505050509050019260010192614677565b9250505087600260200280838360005b838110156146e85780820151818401526020810190506146cd565b5050505090500186600260200280838360005b838110156147165780820151818401526020810190506146fb565b5050505090500185815260200184600360200280838360005b8381101561474a57808201518184015260208101905061472f565b5050505090500183600360200280838360005b8381101561477857808201518184015260208101905061475d565b505050509050018281526020019750505050505050506040516020818303038152906040526040518082805190602001908083835b6020831015156147d257805182526020820191506020810190506020830392506147ad565b6001836020036101000a0380198251168184511680821785525050505050509050019150506040518091039020600190049350600091505b60038210156148a257600660006148328d8560038110151561482857fe5b602002015161397f565b815260200190815260200160002060000160028060200260405190810160405280929190826002801561487a576020028201915b815481526020019060010190808311614866575b5050505050838360038110151561488d57fe5b6020020181905250818060010192505061480a565b601260009054906101000a900473ffffffffffffffffffffffffffffffffffffffff1673ffffffffffffffffffffffffffffffffffffffff166318242d048c858d8d8d8d8d8d6040518963ffffffff167c0100000000000000000000000000000000000000000000000000000000028152600401808960036000925b818410156149645782846020020151600260200280838360005b83811015614953578082015181840152602081019050614938565b50505050905001926001019261491e565b925050508860036000925b818410156149b55782846020020151600260200280838360005b838110156149a4578082015181840152602081019050614989565b50505050905001926001019261496f565b9250505087600260200280838360005b838110156149e05780820151818401526020810190506149c5565b5050505090500186600260200280838360005b83811015614a0e5780820151818401526020810190506149f3565b5050505090500185815260200184600360200280838360005b83811015614a42578082015181840152602081019050614a27565b5050505090500183600360200280838360005b83811015614a70578082015181840152602081019050614a55565b5050505090500182815260200198505050505050505050602060405180830381600087803b158015614aa157600080fd5b505af1158015614ab5573d6000803e3d6000fd5b505050506040513d6020811015614acb57600080fd5b810190808051906020019092919050505090508015614b1e576002600f600086815260200190815260200160002060006101000a81548160ff02191690836002811115614b1457fe5b0217905550614b54565b6001600f600086815260200190815260200160002060006101000a81548160ff02191690836002811115614b4e57fe5b02179055505b5050505050505050505050565b80600860008473ffffffffffffffffffffffffffffffffffffffff1673ffffffffffffffffffffffffffffffffffffffff168152602001908152602001600020600082825401925050819055505050565b600080600080898989898989604051602001808060200187600260200280838360005b83811015614bf0578082015181840152602081019050614bd5565b505050509050018060200180602001806020018060200186810386528c818151815260200191508051906020019060200280838360005b83811015614c42578082015181840152602081019050614c27565b5050505090500186810385528a8181518152602001915080516000925b81841015614caa57828490602001906020020151600260200280838360005b83811015614c99578082015181840152602081019050614c7e565b505050509050019260010192614c5f565b92505050868103845289818151815260200191508051906020019060200280838360005b83811015614ce9578082015181840152602081019050614cce565b505050509050018681038352888181518152602001915080516000925b81841015614d5157828490602001906020020151600260200280838360005b83811015614d40578082015181840152602081019050614d25565b505050509050019260010192614d06565b92505050868103825287818151815260200191508051906020019060200280838360005b83811015614d90578082015181840152602081019050614d75565b505050509050019b5050505050505050505050506040516020818303038152906040526040518082805190602001908083835b602083101515614de85780518252602082019150602081019050602083039250614dc3565b6001836020036101000a038019825116818451168082178552505050505050905001915050604051809103902060019004935060116000858152602001908152602001600020549250600e600085815260200190815260200160002060009054906101000a900473ffffffffffffffffffffffffffffffffffffffff16915060008273ffffffffffffffffffffffffffffffffffffffff1614151515614ef6576040517f08c379a000000000000000000000000000000000000000000000000000000000815260040180806020018281038252601c8152602001807f72616e67652070726f6f66206973206e6f7420636f6e7465737465640000000081525060200191505060405180910390fd5b6010600085815260200190815260200160002060009054906101000a900460ff169050614f258a8484846166de565b6000600e600086815260200190815260200160002060006101000a81548173ffffffffffffffffffffffffffffffffffffffff021916908373ffffffffffffffffffffffffffffffffffffffff16021790555050505050505050505050565b60008060008585604051602001808060200180602001838103835285818151815260200191508051906020019060200280838360005b83811015614fd5578082015181840152602081019050614fba565b50505050905001838103825284818151815260200191508051906020019060200280838360005b83811015615017578082015181840152602081019050614ffc565b505050509050019450505050506040516020818303038152906040526040518082805190602001908083835b6020831015156150685780518252602082019150602081019050602083039250615043565b6001836020036101000a03801982511681845116808217855250505050505090500191505060405180910390206001900492506000600a60008581526020019081526020016000205414151515615127576040517f08c379a00000000000000000000000000000000000000000000000000000000081526004018080602001828103825260188152602001807f72696e6747726f757020646f6573206e6f74206578697374000000000000000081525060200191505060405180910390fd5b6151318486616977565b15156151a5576040517f08c379a000000000000000000000000000000000000000000000000000000000815260040180806020018281038252601c8152602001807f72696e6748617368206973206e6f7420696e2072696e6747726f75700000000081525060200191505060405180910390fd5b600e600085815260200190815260200160002060009054906101000a900473ffffffffffffffffffffffffffffffffffffffff16915060008273ffffffffffffffffffffffffffffffffffffffff161415151561526a576040517f08c379a00000000000000000000000000000000000000000000000000000000081526004018080602001828103825260148152602001807f72696e67206973206e6f7420646973707574656400000000000000000000000081525060200191505060405180910390fd5b600f600085815260200190815260200160002060009054906101000a900460ff169050615299868484846166de565b6000600e600086815260200190815260200160002060006101000a81548173ffffffffffffffffffffffffffffffffffffffff021916908373ffffffffffffffffffffffffffffffffffffffff160217905550505050505050565b6000806000888a604051602001808060200180602001838103835285818151815260200191508051906020019060200280838360005b8381101561534557808201518184015260208101905061532a565b50505050905001838103825284818151815260200191508051906020019060200280838360005b8381101561538757808201518184015260208101905061536c565b505050509050019450505050506040516020818303038152906040526040518082805190602001908083835b6020831015156153d857805182526020820191506020810190506020830392506153b3565b6001836020036101000a03801982511681845116808217855250505050505090500191505060405180910390206001900492508351915081875114151561541e57600080fd5b81865114151561542d57600080fd5b81855114151561543c57600080fd5b60008211801561544c5750600582105b151561545757600080fd5b888888888888604051602001808060200187600260200280838360005b8381101561548f578082015181840152602081019050615474565b505050509050018060200180602001806020018060200186810386528c818151815260200191508051906020019060200280838360005b838110156154e15780820151818401526020810190506154c6565b5050505090500186810385528a8181518152602001915080516000925b8184101561554957828490602001906020020151600260200280838360005b8381101561553857808201518184015260208101905061551d565b5050505090500192600101926154fe565b92505050868103845289818151815260200191508051906020019060200280838360005b8381101561558857808201518184015260208101905061556d565b505050509050018681038352888181518152602001915080516000925b818410156155f057828490602001906020020151600260200280838360005b838110156155df5780820151818401526020810190506155c4565b5050505090500192600101926155a5565b92505050868103825287818151815260200191508051906020019060200280838360005b8381101561562f578082015181840152602081019050615614565b505050509050019b5050505050505050505050506040516020818303038152906040526040518082805190602001908083835b6020831015156156875780518252602082019150602081019050602083039250615662565b6001836020036101000a03801982511681845116808217855250505050505090500191505060405180910390206001900490507f72f49ffb23e0069022c639698aef9f2f4c44abf448ac42b59c6c0b0b7f9d99fa838a8a8a8a8a8a604051808881526020018060200187600260200280838360005b838110156157175780820151818401526020810190506156fc565b505050509050018060200180602001806020018060200186810386528c818151815260200191508051906020019060200280838360005b8381101561576957808201518184015260208101905061574e565b5050505090500186810385528a8181518152602001915080516000925b818410156157d157828490602001906020020151600260200280838360005b838110156157c05780820151818401526020810190506157a5565b505050509050019260010192615786565b92505050868103845289818151815260200191508051906020019060200280838360005b838110156158105780820151818401526020810190506157f5565b505050509050018681038352888181518152602001915080516000925b8184101561587857828490602001906020020151600260200280838360005b8381101561586757808201518184015260208101905061584c565b50505050905001926001019261582d565b92505050868103825287818151815260200191508051906020019060200280838360005b838110156158b757808201518184015260208101905061589c565b505050509050019c5050505050505050505050505060405180910390a16158dd8861397f565b600c600085815260200190815260200160002060008381526020019081526020016000205414151561590e57600080fd5b6000600c6000858152602001908152602001600020600083815260200190815260200160002081905550600b600084815260200190815260200160002060008154809291906001900391905055506000600b60008581526020019081526020016000205414156159945760784201600a6000858152602001908152602001600020819055505b50505050505050505050565b600080878787878787604051602001808060200187600260200280838360005b838110156159db5780820151818401526020810190506159c0565b505050509050018060200180602001806020018060200186810386528c818151815260200191508051906020019060200280838360005b83811015615a2d578082015181840152602081019050615a12565b5050505090500186810385528a8181518152602001915080516000925b81841015615a9557828490602001906020020151600260200280838360005b83811015615a84578082015181840152602081019050615a69565b505050509050019260010192615a4a565b92505050868103845289818151815260200191508051906020019060200280838360005b83811015615ad4578082015181840152602081019050615ab9565b505050509050018681038352888181518152602001915080516000925b81841015615b3c57828490602001906020020151600260200280838360005b83811015615b2b578082015181840152602081019050615b10565b505050509050019260010192615af1565b92505050868103825287818151815260200191508051906020019060200280838360005b83811015615b7b578082015181840152602081019050615b60565b505050509050019b5050505050505050505050506040516020818303038152906040526040518082805190602001908083835b602083101515615bd35780518252602082019150602081019050602083039250615bae565b6001836020036101000a038019825116818451168082178552505050505050905001915050604051809103902060019004915060006002811115615c1357fe5b6010600084815260200190815260200160002060009054906101000a900460ff166002811115615c3f57fe5b14151515615c4c57600080fd5b60116000838152602001908152602001600020549050615c6d81838a6169c9565b5050505050505050565b615c7f616e99565b615c87616f0c565b6000846000600281101515615c9857fe5b6020020151826000600481101515615cac57fe5b602002018181525050846001600281101515615cc457fe5b6020020151826001600481101515615cd857fe5b602002018181525050836000600281101515615cf057fe5b6020020151826002600481101515615d0457fe5b602002018181525050836001600281101515615d1c57fe5b6020020151826003600481101515615d3057fe5b6020020181815250506000905060408360808460006006600019f11515615d5657600190505b8015615dcf577f30644e72e131a029b85045b68181585d97816a916871ca8d3c208c16d87cfd47836000600281101515615d8c57fe5b6020020181815250507f30644e72e131a029b85045b68181585d97816a916871ca8d3c208c16d87cfd47836001600281101515615dc557fe5b6020020181815250505b505092915050565b60008383604051602001808060200180602001838103835285818151815260200191508051906020019060200280838360005b83811015615e25578082015181840152602081019050615e0a565b50505050905001838103825284818151815260200191508051906020019060200280838360005b83811015615e67578082015181840152602081019050615e4c565b505050509050019450505050506040516020818303038152906040526040518082805190602001908083835b602083101515615eb85780518252602082019150602081019050602083039250615e93565b6001836020036101000a0380198251168184511680821785525050505050509050019150506040518091039020600190049050615ef58284616977565b1515615f69576040517f08c379a000000000000000000000000000000000000000000000000000000000815260040180806020018281038252601c8152602001807f72696e6748617368206973206e6f7420696e2072696e6747726f75700000000081525060200191505060405180910390fd5b60006002811115615f7657fe5b600f600084815260200190815260200160002060009054906101000a900460ff166002811115615fa257fe5b141515616017576040517f08c379a000000000000000000000000000000000000000000000000000000000815260040180806020018281038252601f8152602001807f72696e672068617320616c7265616479206265656e20636f6e7465737465640081525060200191505060405180910390fd5b6160228183866169c9565b50505050565b616030616e99565b6004600083815260200190815260200160002060028060200260405190810160405280929190826002801561607a576020028201915b815481526020019060010190808311616066575b50505050509050919050565b6000808383604051602001808060200180602001838103835285818151815260200191508051906020019060200280838360005b838110156160d55780820151818401526020810190506160ba565b50505050905001838103825284818151815260200191508051906020019060200280838360005b838110156161175780820151818401526020810190506160fc565b505050509050019450505050506040516020818303038152906040526040518082805190602001908083835b6020831015156161685780518252602082019150602081019050602083039250616143565b6001836020036101000a03801982511681845116808217855250505050505090500191505060405180910390206001900491506000600a60008481526020019081526020016000205414151515616227576040517f08c379a00000000000000000000000000000000000000000000000000000000081526004018080602001828103825260168152602001807f72696e6747726f757020646f65736e742065786973740000000000000000000081525060200191505060405180910390fd5b42600a600084815260200190815260200160002054111515156162b2576040517f08c379a000000000000000000000000000000000000000000000000000000000815260040180806020018281038252601a8152602001807f4e6f7420656e6f7567682074696d65206861732070617373656400000000000081525060200191505060405180910390fd5b600160048111156162bf57fe5b600660008660008151811015156162d257fe5b90602001906020020151815260200190815260200160002060020160009054906101000a900460ff16600481111561630657fe5b14151561637b576040517f08c379a000000000000000000000000000000000000000000000000000000000815260040180806020018281038252601a8152602001807f5472616e73616374696f6e206973206e6f742070656e64696e6700000000000081525060200191505060405180910390fd5b600090505b83518110156163e557600260066000868481518110151561639d57fe5b90602001906020020151815260200190815260200160002060020160006101000a81548160ff021916908360048111156163d357fe5b02179055508080600101915050616380565b67016345785d8a000060086000600d600086815260200190815260200160002060009054906101000a900473ffffffffffffffffffffffffffffffffffffffff1673ffffffffffffffffffffffffffffffffffffffff1673ffffffffffffffffffffffffffffffffffffffff168152602001908152602001600020600082825401925050819055506000600d600084815260200190815260200160002060006101000a81548173ffffffffffffffffffffffffffffffffffffffff021916908373ffffffffffffffffffffffffffffffffffffffff1602179055506000600a60008481526020019081526020016000208190555050505050565b6000600860008373ffffffffffffffffffffffffffffffffffffffff1673ffffffffffffffffffffffffffffffffffffffff168152602001908152602001600020549050919050565b600033905081600860008373ffffffffffffffffffffffffffffffffffffffff1673ffffffffffffffffffffffffffffffffffffffff16815260200190815260200160002054101515156165e4576040517f08c379a00000000000000000000000000000000000000000000000000000000081526004018080602001828103825260108152602001807f4e6f7420656e6f7567682066756e64730000000000000000000000000000000081525060200191505060405180910390fd5b81600860008373ffffffffffffffffffffffffffffffffffffffff1673ffffffffffffffffffffffffffffffffffffffff168152602001908152602001600020600082825403925050819055508073ffffffffffffffffffffffffffffffffffffffff166108fc839081150290604051600060405180830381858888f19350505050158015616677573d6000803e3d6000fd5b505050565b7f30644e72e131a029b85045b68181585d2833e84879b9709143e1f593f000000181565b6000808260006002811015156166b257fe5b60200201511480156166d7575060008260016002811015156166d057fe5b6020020151145b9050919050565b6000806002808111156166ed57fe5b8360028111156166f957fe5b141561681457600091505b855182101561676957600160066000888581518110151561672157fe5b90602001906020020151815260200190815260200160002060020160006101000a81548160ff0219169083600481111561675757fe5b02179055508180600101925050616704565b60784201600a600087815260200190815260200160002081905550600d600086815260200190815260200160002060009054906101000a900473ffffffffffffffffffffffffffffffffffffffff16905067016345785d8a0000600860008373ffffffffffffffffffffffffffffffffffffffff1673ffffffffffffffffffffffffffffffffffffffff1681526020019081526020016000206000828254019250508190555061696f565b6001600281111561682157fe5b83600281111561682d57fe5b14156168f757600091505b855182101561689d57600460066000888581518110151561685557fe5b90602001906020020151815260200190815260200160002060020160006101000a81548160ff0219169083600481111561688b57fe5b02179055508180600101925050616838565b67016345785d8a0000600860008673ffffffffffffffffffffffffffffffffffffffff1673ffffffffffffffffffffffffffffffffffffffff1681526020019081526020016000206000828254019250508190555061696e565b6000151561696d576040517f08c379a000000000000000000000000000000000000000000000000000000000815260040180806020018281038252601d8152602001807f50726f6f6620737461747573206973207374696c6c20756e6b6e6f776e00000081525060200191505060405180910390fd5b5b5b505050505050565b6000806000809150600090505b83518110156169be5784848281518110151561699c57fe5b9060200190602002015114156169b157600191505b8080600101915050616984565b819250505092915050565b6000806000600a60008781526020019081526020016000205414151515616a58576040517f08c379a00000000000000000000000000000000000000000000000000000000081526004018080602001828103825260188152602001807f72696e6747726f757020646f6573206e6f74206578697374000000000000000081525060200191505060405180910390fd5b6000600b600087815260200190815260200160002054141515616b09576040517f08c379a00000000000000000000000000000000000000000000000000000000081526004018080602001828103825260328152602001807f72696e6747726f75702072616e67652070726f6f66732068617665206e6f742081526020017f6265656e207375626d697474656420796574000000000000000000000000000081525060400191505060405180910390fd5b60016004811115616b1657fe5b60066000856000815181101515616b2957fe5b90602001906020020151815260200190815260200160002060020160009054906101000a900460ff166004811115616b5d57fe5b141515616bd2576040517f08c379a000000000000000000000000000000000000000000000000000000000815260040180806020018281038252601a8152602001807f5472616e73616374696f6e206973206e6f742070656e64696e6700000000000081525060200191505060405180910390fd5b600091505b8251821015616c3c576003600660008585815181101515616bf457fe5b90602001906020020151815260200190815260200160002060020160006101000a81548160ff02191690836004811115616c2a57fe5b02179055508180600101925050616bd7565b33905067016345785d8a0000600860008373ffffffffffffffffffffffffffffffffffffffff1673ffffffffffffffffffffffffffffffffffffffff1681526020019081526020016000205410151515616cfe576040517f08c379a00000000000000000000000000000000000000000000000000000000081526004018080602001828103825260148152602001807f63616e6e6f74206166666f726420626f756e747900000000000000000000000081525060200191505060405180910390fd5b67016345785d8a0000600860008373ffffffffffffffffffffffffffffffffffffffff1673ffffffffffffffffffffffffffffffffffffffff1681526020019081526020016000206000828254039250508190555080600e600086815260200190815260200160002060006101000a81548173ffffffffffffffffffffffffffffffffffffffff021916908373ffffffffffffffffffffffffffffffffffffffff1602179055505050505050565b8260028101928215616ddb579160200282015b82811115616dda578251825591602001919060010190616dbf565b5b509050616de89190616f2f565b5090565b61028060405190810160405280616e01616f54565b8152602001616e0e616f54565b8152602001616e1b616f54565b81526020016000815260200160008152602001600081526020016000815260200160008152602001600081526020016000815260200160008152602001600081526020016000815260200160008152602001600073ffffffffffffffffffffffffffffffffffffffff16815260200160608152602001606081525090565b6040805190810160405280600290602082028038833980820191505090505090565b606060405190810160405280600390602082028038833980820191505090505090565b60c0604051908101604052806003905b616ef6616f54565b815260200190600190039081616eee5790505090565b608060405190810160405280600490602082028038833980820191505090505090565b616f5191905b80821115616f4d576000816000905550600101616f35565b5090565b90565b60408051908101604052806002906020820280388339808201915050905050905600a165627a7a723058200fc46e9d6d5393653e040b8b7bc26a1a2d0040f7465b49bf4168a160bab9a7470029",
  "source": "pragma solidity 0.4.24;\r\n\r\nimport \"./MonereumMemory.sol\";\r\nimport \"./MonereumVerifier.sol\";\r\n\r\ncontract MonereumBlockchain is MonereumMemory {\r\n    MonereumVerifier mv;\r\n\r\n    function getMonereumVerifier() public returns (address) {\r\n        return mv;\r\n    }\r\n\r\n    constructor(address MI, address MV) MonereumMath(MI) public {\r\n        mv = MonereumVerifier(MV);\r\n    }\r\n\r\n    function mint(\r\n        uint256[2] dest,\r\n        uint256 amount\r\n    ) public {\r\n        uint256 transactionID = hashP(dest);\r\n        require(transactions[transactionID].status == Status.NonExistant, \"Transaction already exists\");\r\n        transactions[transactionID].commitment = ecmul(h, amount);\r\n        transactions[transactionID].status = Status.Accepted;\r\n        emit LogTransaction(\r\n            [uint256(0), uint256(0)],\r\n            dest,\r\n            transactions[transactionID].commitment\r\n        );\r\n    }\r\n\r\n    function getBalance(address addr) public view returns (uint256) {\r\n        return ethBalances[addr];\r\n    }\r\n\r\n    function withdrawEthereum(uint256 amount) public {\r\n        address sender = msg.sender;\r\n        require(ethBalances[sender] >= amount, \"Not enough funds\");\r\n        ethBalances[sender] -= amount;\r\n        sender.transfer(amount);\r\n    }\r\n\r\n    function depositEthereum(\r\n        address addr,\r\n        uint256 amount\r\n    ) public payable {\r\n        ethBalances[addr] += amount;\r\n    }\r\n\r\n    function disputeRingGroup(\r\n        uint256 ringGroupHash,\r\n        uint256 disputedTopicHash,\r\n        uint256[] outputIDs\r\n    ) internal {\r\n        require(ringGroupTimes[ringGroupHash] != 0, \"ringGroup does not exist\");\r\n        require(rangeProofsRemaining[ringGroupHash] == 0, \"ringGroup range proofs have not been submitted yet\");\r\n        require(transactions[outputIDs[0]].status == Status.Pending, \"Transaction is not pending\");\r\n        for (uint256 i = 0; i < outputIDs.length; i++) {\r\n            transactions[outputIDs[i]].status = Status.Disputed;\r\n        }\r\n        address sender = msg.sender;\r\n        require(ethBalances[sender] >= badRingBountyAmount, \"cannot afford bounty\");\r\n        ethBalances[sender] -= badRingBountyAmount;\r\n        badDisputeTopicBountyHolders[disputedTopicHash] = sender;\r\n    }\r\n\r\n    function resolveClaim(\r\n        uint256[] outputIDs,\r\n        uint256 ringGroupHash,\r\n        address badRingBountyHolder,\r\n        ProofStatus disputedProofStatus\r\n    ) internal {\r\n        if (disputedProofStatus == ProofStatus.Accepted) {\r\n            for(uint256 i = 0; i < outputIDs.length; i++) {\r\n               transactions[outputIDs[i]].status = Status.Pending;\r\n            }\r\n            ringGroupTimes[ringGroupHash] = block.timestamp + disputeTime;\r\n            address goodRingGroupBountyHolder = goodRingGroupBountyHolders[ringGroupHash];\r\n            ethBalances[goodRingGroupBountyHolder] += goodRingBountyAward;\r\n        } else if (disputedProofStatus == ProofStatus.Rejected) {\r\n            for(i = 0; i < outputIDs.length; i++) {\r\n               transactions[outputIDs[i]].status = Status.Rejected;\r\n            }\r\n            ethBalances[badRingBountyHolder] += badRingBountyAward;\r\n        } else {\r\n            require(false, \"Proof status is still unknown\");\r\n        }\r\n    }\r\n\r\n    function claimRangeProofBounty(\r\n        uint256[] outputIDs,\r\n        uint256[2] commitment,\r\n        uint256[2][] rangeCommitments,\r\n        uint256[] rangeBorromeans,\r\n        uint256[2][] rangeProofs,\r\n        uint256[] indices\r\n    ) public {\r\n        uint256 rangeProofHash = uint256(keccak256(abi.encode(\r\n            outputIDs,\r\n            commitment,\r\n            rangeCommitments,\r\n            rangeBorromeans,\r\n            rangeProofs,\r\n            indices\r\n        )));\r\n        uint256 ringGroupHash = rangeToRingGroup[rangeProofHash];\r\n        address badRingBountyHolder = badDisputeTopicBountyHolders[rangeProofHash];\r\n        require(badRingBountyHolder != 0, \"range proof is not contested\");\r\n        ProofStatus disputedRingStatus = rangeStatuses[rangeProofHash];\r\n        resolveClaim(\r\n            outputIDs,\r\n            ringGroupHash,\r\n            badRingBountyHolder,\r\n            disputedRingStatus\r\n        );\r\n        badDisputeTopicBountyHolders[rangeProofHash] = 0;\r\n    }\r\n\r\n    function disputeRangeProof(\r\n        uint256[] outputIDs,\r\n        uint256[2] commitment,\r\n        uint256[2][] rangeCommitments,\r\n        uint256[] rangeBorromeans,\r\n        uint256[2][] rangeProofs,\r\n        uint256[] indices\r\n    ) public {\r\n        uint256 rangeProofHash = uint256(keccak256(abi.encode(\r\n            outputIDs,\r\n            commitment,\r\n            rangeCommitments,\r\n            rangeBorromeans,\r\n            rangeProofs,\r\n            indices\r\n        )));\r\n        require(rangeStatuses[rangeProofHash] != ProofStatus.Unknown);\r\n        uint256 ringGroupHash = rangeToRingGroup[rangeProofHash];\r\n        disputeRingGroup(\r\n            ringGroupHash,\r\n            rangeProofHash,\r\n            outputIDs\r\n        );\r\n    }\r\n\r\n    function resolveRangeProof(\r\n        uint256[] outputIDs,\r\n        uint256[2] commitment,\r\n        uint256[2][] rangeCommitments,\r\n        uint256[] rangeBorromeans,\r\n        uint256[2][] rangeProofs,\r\n        uint256[] indices\r\n    ) public {\r\n        uint256 rangeProofHash = uint256(keccak256(abi.encode(\r\n            outputIDs,\r\n            commitment,\r\n            rangeCommitments,\r\n            rangeBorromeans,\r\n            rangeProofs,\r\n            indices\r\n        )));\r\n        bool isValid = mv.verifyRangeProof(\r\n            commitment,\r\n            rangeCommitments,\r\n            rangeBorromeans,\r\n            rangeProofs,\r\n            indices\r\n        );\r\n\r\n        if (isValid) {\r\n            rangeStatuses[rangeProofHash] = ProofStatus.Accepted;\r\n        } else {\r\n            rangeStatuses[rangeProofHash] = ProofStatus.Rejected;\r\n        }\r\n    }\r\n\r\n    function commitRingGroup(\r\n        uint256[] outputIDs,\r\n        uint256[] ringHashes\r\n    ) public {\r\n        uint256 ringGroupHash = uint256(keccak256(abi.encode(\r\n            outputIDs,\r\n            ringHashes\r\n        )));\r\n        require(ringGroupTimes[ringGroupHash] != 0, \"ringGroup doesnt exist\");\r\n        require(ringGroupTimes[ringGroupHash] <= block.timestamp, \"Not enough time has passed\");\r\n        require(transactions[outputIDs[0]].status == Status.Pending, \"Transaction is not pending\");\r\n        for (uint256 i = 0; i < outputIDs.length; i++) {\r\n            transactions[outputIDs[i]].status = Status.Accepted;\r\n        }\r\n\r\n        ethBalances[goodRingGroupBountyHolders[ringGroupHash]] += goodRingBountyAmount;\r\n\r\n        // Claim gas\r\n        goodRingGroupBountyHolders[ringGroupHash] = 0;\r\n        ringGroupTimes[ringGroupHash] = 0;\r\n    }\r\n\r\n    function isInSet(uint256 val, uint256[] set) internal pure returns (bool) {\r\n        bool found = false;\r\n        for(uint256 i = 0; i < set.length; i++) {\r\n            if (set[i] == val) {\r\n                found = true;\r\n            }\r\n        }\r\n        return found;\r\n    }\r\n\r\n    function claimRingBounty(\r\n        uint256[] outputIDs,\r\n        uint256[] ringHashes,\r\n        uint256 ringHash\r\n    ) public {\r\n        uint256 ringGroupHash = uint256(keccak256(abi.encode(\r\n            outputIDs,\r\n            ringHashes\r\n        )));\r\n        require(ringGroupTimes[ringGroupHash] != 0, \"ringGroup does not exist\");\r\n        require(isInSet(ringHash, ringHashes), \"ringHash is not in ringGroup\");\r\n        address badRingBountyHolder = badDisputeTopicBountyHolders[ringHash];\r\n        // Checks if this is the disputed ring\r\n        require(badRingBountyHolder != 0, \"ring is not disputed\");\r\n        ProofStatus disputedRingStatus = ringStatuses[ringHash];\r\n        resolveClaim(\r\n            outputIDs,\r\n            ringGroupHash,\r\n            badRingBountyHolder,\r\n            disputedRingStatus\r\n        );\r\n\r\n        // Ring is no longer being disputed\r\n        badDisputeTopicBountyHolders[ringHash] = 0;\r\n    }\r\n\r\n    function disputeRingProof(\r\n        uint256[] outputIDs,\r\n        uint256[] ringHashes,\r\n        uint256 ringHash\r\n    ) public {\r\n        uint256 ringGroupHash = uint256(keccak256(abi.encode(\r\n            outputIDs,\r\n            ringHashes\r\n        )));\r\n        require(isInSet(ringHash, ringHashes), \"ringHash is not in ringGroup\");\r\n        require(ringStatuses[ringHash] == ProofStatus.Unknown, \"ring has already been contested\");\r\n        disputeRingGroup(\r\n            ringGroupHash,\r\n            ringHash,\r\n            outputIDs\r\n        );\r\n    }\r\n\r\n    function resolveRingProof(\r\n        uint256[2][MIXIN] funds,\r\n        uint256[2] keyImage,\r\n        uint256[2] commitment,\r\n        uint256 borromean,\r\n        uint256[MIXIN] imageFundProofs,\r\n        uint256[MIXIN] commitmentProofs,\r\n        uint256 outputHash\r\n    ) public {\r\n        uint256 ringHash = uint256(keccak256(abi.encode(\r\n            funds,\r\n            keyImage,\r\n            commitment,\r\n            borromean,\r\n            imageFundProofs,\r\n            commitmentProofs,\r\n            outputHash\r\n        )));\r\n        uint256[2][MIXIN] memory commitments;\r\n        for (uint256 i = 0; i < MIXIN; i++) {\r\n            commitments[i] = transactions[hashP(funds[i])].commitment;\r\n        }\r\n        bool isValid = mv.verifyRingProof(\r\n            funds,\r\n            commitments,\r\n            keyImage,\r\n            commitment,\r\n            borromean,\r\n            imageFundProofs,\r\n            commitmentProofs,\r\n            outputHash\r\n        );\r\n\r\n        if (isValid) {\r\n            ringStatuses[ringHash] = ProofStatus.Accepted;\r\n        } else {\r\n            ringStatuses[ringHash] = ProofStatus.Rejected;\r\n        }\r\n    }\r\n\r\n    // We check all lengths are the same and reasonable\r\n    // Verified: rangeProofCommitment[ringGroupHash][rangeProofHash] == Commitment\r\n    // rangeProofCommitment[ringGroupHash][rangeProofHash] = 0\r\n    // rangeProofsRemaining[ringGroupHash]--\r\n    // If rangeProofsRemaining == 0\r\n    //     ringGroupTimes[ringGroupHash] = block.timestamp + disputeTime\r\n\r\n    function logRangeProof(\r\n        // Used to get ringGroupHash and connect to outputIDs\r\n        uint256[] ringHashes,\r\n        // Range Proof Hash\r\n        uint256[] outputIDs,\r\n        uint256[2] commitment,\r\n        uint256[2][] rangeCommitments,\r\n        uint256[] rangeBorromeans,\r\n        uint256[2][] rangeProofs,\r\n        uint256[] indices\r\n    ) public {\r\n        uint256 ringGroupHash = uint256(keccak256(abi.encode(\r\n            outputIDs,\r\n            ringHashes\r\n        )));\r\n        uint256 bits = indices.length;\r\n        require(rangeCommitments.length == bits);\r\n        require(rangeBorromeans.length == bits);\r\n        require(rangeProofs.length == bits);\r\n        require(bits > 0 && bits < 5);\r\n        uint256 rangeProofHash = uint256(keccak256(abi.encode(\r\n            outputIDs,\r\n            commitment,\r\n            rangeCommitments,\r\n            rangeBorromeans,\r\n            rangeProofs,\r\n            indices\r\n        )));\r\n        emit LogRangeProof(\r\n            ringGroupHash,\r\n            outputIDs,\r\n            commitment,\r\n            rangeCommitments,\r\n            rangeBorromeans,\r\n            rangeProofs,\r\n            indices\r\n        );\r\n        require(rangeProofCommitment[ringGroupHash][rangeProofHash] == hashP(commitment));\r\n        rangeProofCommitment[ringGroupHash][rangeProofHash] = 0;\r\n        rangeProofsRemaining[ringGroupHash]--;\r\n        if (rangeProofsRemaining[ringGroupHash] == 0) {\r\n            ringGroupTimes[ringGroupHash] = block.timestamp + disputeTime;\r\n        }\r\n    }\r\n\r\n    event LogRangeProof(\r\n        uint256 ringGroupHash,\r\n        uint256[] outputIDs,\r\n        uint256[2] commitment,\r\n        uint256[2][] rangeCommitments,\r\n        uint256[] rangeBorromeans,\r\n        uint256[2][] rangeProofs,\r\n        uint256[] indices\r\n    );\r\n\r\n    struct Variables {\r\n        uint256[2] keyImage;\r\n        uint256[2] commitmentSum;\r\n        uint256[2] minerFeeCommitment;\r\n        uint256 numOutputs;\r\n        uint256 numRangeProofs;\r\n        uint256 outputHash;\r\n        uint256 ringHash;\r\n        uint256 transactionID;\r\n        uint256 R;\r\n        uint256 i;\r\n        uint256 ring;\r\n        uint256 bounty;\r\n        uint256 ringGroupHash;\r\n        uint256 outputID;\r\n        address sender;\r\n        uint256[] ringHashes;\r\n        uint256[] outputIDs;\r\n    }\r\n\r\n    function saveMinerFee(uint256 fee) {\r\n        require(fee < (uint256(1) << 64));\r\n        require(fee != 0);\r\n        minerFeeH[fee] = ecmul(h, fee);\r\n    }\r\n\r\n    // A point is \"okay\" when it is not the point at infinity, and coordinates are < p\r\n\r\n    // Maps N input rings, to M output transactions\r\n    // All lengths are verified to be consistent\r\n    // outputHash = hash(outputDest, outputSrc, outputCommitments, minerFee)\r\n    // Each ringHash is a hash of a ringProof:\r\n    //     funds <- Verified: Status of Hash(funds_i) is Accepted\r\n    //     keyImage <- Verified: usedImages[hash(keyImage)] is false. It is then updated to true.\r\n    //     commitment <- Verified: okay\r\n    //     borromean\r\n    //     imagefundProofs\r\n    //     commitmentProofs\r\n    //     outputHash\r\n    // Verified okay: outputCommitment_i\r\n    // Verified: Sum_i(commitment_i) = Sum_i(outputCommitment_i) + minerFee*H\r\n    // Each ringProof is logged\r\n    // ringHashes = [ringHash_0, ..., ringHash_{N-1}]\r\n    // outputIDs = [hash(outputDest_0), ..., hash(outputDest_{M-1}), hash(minerDest)] <- All verified don't exist yet. All now set to Pending\r\n    // ringGroupHash = hash(outputIDs, ringHashes)\r\n    // Verified ringGroupTimes[ringGroupHash] != 0\r\n    // ringGroupTimes[ringGroupHash] = 2^250\r\n    // Verified rangeProofHashes_i < rangeProofHashes_{i+1} for each i, for uniqueness\r\n    // rangeProofCommitment[ringGroupHash][rangeProofHashes_i] = hash(ringProof_i.commitment) for all i\r\n    // rangeProofsRemaining[ringGroupHash] = M\r\n    // ethBalances[msg.sender] -= goodRingBountyAmount (Overflow checked)\r\n\r\n    function send(\r\n        // N Inputs\r\n        uint256[2][MIXIN][] funds,\r\n        // N Ring Proofs\r\n        uint256[2][] keyImages,\r\n        uint256[2][] commitment,\r\n        uint256[] borromean,\r\n        uint256[MIXIN][] imageFundProofs,\r\n        uint256[MIXIN][] commitmentProofs,\r\n        // M Range Proofs\r\n        uint256[] rangeProofHashes,\r\n        // M Outputs\r\n        uint256[2][] outputDests,\r\n        uint256[2][] outputSrcs,\r\n        uint256[2][] outputCommitments,\r\n        uint256 minerFee,\r\n        // Miner\r\n        uint256[2] minerDest\r\n    ) public {\r\n        // Can't declare variables as memory, so group them into a struct\r\n        // (We're already at stack limits for this function)\r\n        Variables memory v;\r\n\r\n        v.R = funds.length;\r\n        require(keyImages.length == v.R);\r\n        require(commitment.length == v.R);\r\n        require(borromean.length == v.R);\r\n        require(imageFundProofs.length == v.R);\r\n        require(commitmentProofs.length == v.R);\r\n        require(v.R > 0 && v.R < 5, \"Only 1...4 rings are allowed\");\r\n\r\n        v.numOutputs = outputDests.length;\r\n        require(outputSrcs.length == v.numOutputs);\r\n        require(outputCommitments.length == v.numOutputs);\r\n        require(v.numOutputs > 0 && v.numOutputs < 5, \"Only 1...4 outputs are allowed\");\r\n\r\n        v.outputHash = uint256(keccak256(\r\n            // encodePacked loses length information so we must use .encode everywhere\r\n            // Else outputsDests[-1] could be shifted into outputSrcs[0] with same hash\r\n            abi.encode(outputDests, outputSrcs, outputCommitments, minerFee)\r\n        ));\r\n\r\n        v.ringHashes = new uint256[](v.R);\r\n\r\n        v.commitmentSum = [uint256(0), uint256(0)];\r\n        for (v.ring = 0; v.ring < v.R; v.ring++) {\r\n            v.keyImage = keyImages[v.ring];\r\n            require(!usedImages[hashP(v.keyImage)], \"keyImage is already used\");\r\n            for ( v.i = 0; v.i < MIXIN; v.i++ ) {\r\n                v.transactionID = hashP(funds[v.ring][v.i]);\r\n                require(transactions[v.transactionID].status == Status.Accepted, \"Transaction has not been accepted yet\");\r\n            }\r\n            v.ringHash = uint256(keccak256(abi.encode(\r\n                funds[v.ring],\r\n                v.keyImage,\r\n                commitment[v.ring],\r\n                borromean[v.ring],\r\n                imageFundProofs[v.ring],\r\n                commitmentProofs[v.ring],\r\n                v.outputHash\r\n            )));\r\n            emit LogRingProof(\r\n                funds[v.ring],\r\n                v.keyImage,\r\n                commitment[v.ring],\r\n                borromean[v.ring],\r\n                imageFundProofs[v.ring],\r\n                commitmentProofs[v.ring],\r\n                v.outputHash\r\n            );\r\n            require(!isInf(commitment[v.ring]), \"Input commitment cannot be point at infinity\");\r\n            v.commitmentSum = ecadd(v.commitmentSum, commitment[v.ring]);\r\n            require(v.commitmentSum[0] < p, \"Commitment sum failed; Not all input commitments are on the curve\");\r\n            v.ringHashes[v.ring] = v.ringHash;\r\n            usedImages[hashP(v.keyImage)] = true;\r\n        }\r\n\r\n        v.outputIDs = new uint256[](v.numOutputs + 1);\r\n        for (v.i = 0; v.i < v.numOutputs; v.i++) {\r\n            v.outputIDs[v.i] = hashP(outputDests[v.i]);\r\n        }\r\n        v.outputIDs[v.numOutputs] = hashP(minerDest);\r\n\r\n        v.ringGroupHash = uint256(keccak256(abi.encode(\r\n            v.outputIDs,\r\n            v.ringHashes\r\n        )));\r\n        require(ringGroupTimes[v.ringGroupHash] == 0, \"Ring Group has already been submitted\");\r\n        ringGroupTimes[v.ringGroupHash] = uint256(1) << 250;\r\n        emit LogRingGroup(\r\n            v.outputIDs,\r\n            v.ringHashes\r\n        );\r\n\r\n        require(rangeProofHashes.length == v.numOutputs);\r\n        for( v.i = 0; v.i < v.numOutputs; v.i++ ) {\r\n            v.outputID = v.outputIDs[v.i];\r\n            require(transactions[v.outputID].status == Status.NonExistant, \"Output transaction already exists\");\r\n            transactions[v.outputID].commitment = outputCommitments[v.i];\r\n            transactions[v.outputID].status = Status.Pending;\r\n            emit LogTransaction(\r\n                outputSrcs[v.i],\r\n                outputDests[v.i],\r\n                outputCommitments[v.i]\r\n            );\r\n            require(v.i == 0 || rangeProofHashes[v.i - 1] < rangeProofHashes[v.i], \"Range hashes must be in order\");\r\n            rangeProofCommitment[v.ringGroupHash][rangeProofHashes[v.i]] = hashP(outputCommitments[v.i]);\r\n            require(!isInf(outputCommitments[v.i]), \"Output Commitment cannot be point at infinity\");\r\n            require(outputCommitments[v.i][1] < p, \"Commitment sum failed; not all output commitments are on curve\");\r\n            v.commitmentSum = ecadd(v.commitmentSum, [outputCommitments[v.i][0], p - outputCommitments[v.i][1]]);\r\n            require(v.commitmentSum[0] < p, \"Commitment sum failed; not all output commitments are on curve\");\r\n        }\r\n\r\n        if (minerFee == 0) {\r\n            v.minerFeeCommitment = [uint256(0), uint256(0)];\r\n        } else {\r\n            v.minerFeeCommitment = minerFeeH[minerFee];\r\n            require(v.minerFeeCommitment[0] != 0, \"Miner Fee has not been calculated yet\");\r\n        }\r\n        require(v.commitmentSum[0] == v.minerFeeCommitment[0], \"Commitment sum failed; Does not sum to zero\");\r\n        require(v.commitmentSum[1] == v.minerFeeCommitment[1], \"Commitment sum failed; Does not sum to zero\");\r\n\r\n        v.outputID = v.outputIDs[v.numOutputs];\r\n        require(transactions[v.outputID].status == Status.NonExistant, \"Miner transaction already exists\");\r\n        transactions[v.outputID].commitment = v.minerFeeCommitment;\r\n        transactions[v.outputID].status = Status.Pending;\r\n\r\n        rangeProofsRemaining[v.ringGroupHash] = v.numOutputs;\r\n\r\n        v.sender = msg.sender;\r\n        require(ethBalances[v.sender] >= goodRingBountyAmount, \"Not enough funds for bounty\");\r\n        ethBalances[v.sender] -= goodRingBountyAmount;\r\n    }\r\n\r\n    event LogTransaction(\r\n        uint256[2] src,\r\n        uint256[2] dest,\r\n        uint256[2] commitment\r\n    );\r\n\r\n    event LogRingGroup(\r\n        uint256[] outputIDs,\r\n        uint256[] ringHashes\r\n    );\r\n\r\n    event LogRingProof(\r\n        uint256[2][MIXIN] funds,\r\n        uint256[2] keyImage,\r\n        uint256[2] commitment,\r\n        uint256 borromean,\r\n        uint256[MIXIN] imageFundProofs,\r\n        uint256[MIXIN] commitmentProofs,\r\n        uint256 outputHash\r\n    );\r\n}\r\n",
  "sourcePath": "/mnt/c/Users/Admin/Documents/programming/Monereum/contracts/contracts/MonereumBlockchain.sol",
  "compiler": {
    "name": "solc",
    "version": "0.4.24+commit.e67f0147.Emscripten.clang"
  },
  "schemaVersion": "2.0.1",
  "updatedAt": "2018-11-20T17:03:30.193Z"
}